:04000000FBEF06F01C
:020006001200E6
:1000080000C01BF001C01AF002C019F003C018F0BC
:1000180004C017F005C016F006C015F09EA0A3D0C6
:10002800010E3626000E3722382239229E90F60E0F
:10003800CF6EA00ECE6E016A82B0012A01501D1843
:1000480027E0026A82B0022A016A82B2012A0250BB
:100058000118000ED8A4FF0E006E00C006F0005272
:1000680007E0010E2826000E29222A222B2206D07C
:10007800010E285E000E295A2A5A2B5A3B500618A0
:10008800D8A48B7406C03BF0225026262350272282
:10009800000E82B0010E1D6E1C508318016E01C047
:1000A80005F00150000847E2046A04C001F0010E9F
:1000B800006E015004E000360090FF0FFBD700509F
:1000C8000514026E016A0250000A02E0010E016E78
:1000D8000150010AFF0ED8A4000E036E04C001F0FF
:1000E800010E006E015004E000360090FF0FFBD7B0
:1000F80000508314026E016A0250000A02E0010EE9
:10010800016E0150000AFF0ED8A4000E006E0350C5
:1001180000160CE004C001F0010E006E015004E06E
:1001280000360090FF0FFBD700502D120450070A2D
:1001380002E0042ABAD783CF1CF08BAC04D08B9C86
:10014800040E3C6E10D03C50000A0CE1070E275CF0
:1001580002E1D00E265C05E38B8CD00E265E070EDE
:10016800275A01D03C061BC000F01AC001F019C084
:1001780002F018C003F017C004F016C005F015C04F
:0401880006F011006C
:0E018C00030E0D6E0D2EFED7000000001200B7
:0E019A00C70E0D6E0D2EFED7000000001200E5
:1001A800560E0C6EB50E0D6E0D2EFED70C2EFCD70E
:0601B8000000000012002F
:1001BE0056BE02D08A9601D08A8656BC02D08A9448
:1001CE0001D08A8456BA02D08A9201D08A8256B859
:1001DE0002D08A9001D08A803AB002D08A8801D0AB
:1001EE008A988A8ACCDF8A9A56B602D08A9601D02D
:1001FE008A8656B402D08A9401D08A8456B202D02E
:10020E008A9201D08A8256B002D08A9001D08A801A
:10021E003AB002D08A8801D08A988A8AB0DF8A9A48
:0C022E003AA002D0BADF01D0B1DF12000C
:10023A000B840BAE28EF01F0010E036E026A016A0D
:0A024A00006A0A360232FF0E1200AD
:10025400086A096A100E0C6E013408360936045017
:10026400085E0550D8A0053C095ED8B007D00450FC
:1002740008260550D8B0053C0926D890003601362A
:060284000C2EEAD7120067
:0C028A003A9055C056F096DF3A80120002
:080296000AAE029E000E1200E8
:0E029E00026A016A006A086A036A000E120012
:1002AC000B820BAE60EF01F0036802680168006816
:0802BC000A360232FF0E1200A7
:1002C400220E0C6E086A096A0A6A0B6A0C06D8B414
:1002D4001FD0D8900B320A3209320832033202326C
:1002E40001320032D8A0F2D70C06D8B409D0045099
:1002F40008260550092206500A2207500B22EAD785
:10030400045008260550092206500A2207500B22E1
:020314001200D5
:080316000B6A0B86FF0E1200BA
:10031E0024C002F025C003F002C000F003C001F0BB
:02032E001200BB
:1003300051C0E1FF52C0E2FF200EE66E200EE66ED5
:10034000200EE66E200EE66E300EE66EE66A040EB5
:100350005124536E000E5220546E000E501802E1CC
:10036000000E4F1827E00A0E046E000E056E4FC0F7
:1003700000F050C001F06EDF08C000F009C001F0CD
:10038000300E002653C0E1FF54C0E2FF00C0E6FF7C
:100390000A0E046E000E056E4FC000F050C001F052
:1003A00059DF00C04FF001C050F0010E535E000E47
:0603B000545AD3D71200DD
:1003B6000CB01DEF02F00CA2C3EF02F00E6A000EA5
:1003C600026434EF02F0F00E0214D8A4FFEF01F03D
:1003D600023A01380F0B02260138F00B016E003885
:1003E6000F0B01260038F00B006E08380F0B0026A5
:1003F6000838F00B086E0E84D89002BE18EF02F093
:1004060008360036013602360E2A02BE18EF02F012
:1004160008360036013602360E2A02BE18EF02F002
:1004260008360036013602360E2A0E500364B9EF3E
:1004360002F0035E0BBC08AEBEEF02F0D880800E61
:1004460008640030000E002201220222D8A0BEEF6E
:1004560002F0023201320032034AC3EF02F0BEEF6D
:1004660002F001C002F000C001F008C000F0086A06
:10047600000E0E8602646BEF02F0F00E0214D8A492
:1004860053EF02F0023A01380F0B02260138F00B47
:10049600016E00380F0B01260038F00B006E0E843B
:1004A600D89002BE18EF02F00036013602360E2A48
:1004B60002BE18EF02F00036013602360E2A02BEE0
:1004C60018EF02F00036013602360E2A18EF02F057
:1004D60001C002F000C001F0006A000E0E960E8800
:1004E600026498EF02F0F00E0214D8A483EF02F033
:1004F600023A01380F0B02260138F00B016E0E840A
:10050600D89002BE18EF02F0013602360E2A02BE5D
:1005160018EF02F0013602360E2A02BE18EF02F07C
:10052600013602360E2A18EF02F001C002F0016A07
:10053600000E0E860264C8EF02F0F00E0214D8A474
:10054600A7EF02F0023A0E84D89002BE18EF02F02E
:1005560002360E2A02BE18EF02F002360E2A02BE3C
:1005660018EF02F002360E2A18EF02F0010E0C6E9A
:1005760061DECBEF02F0020E0C6E8ADECBEF02F0EC
:10058600040E0C6E90DECBEF02F0080E0C6E84DECD
:02059600120051
:100598004F50010A03E1800E4F6E14D04F50020AEB
:1005A80003E1C00E4F6E0ED04F50030A03E1940EC4
:1005B8004F6E08D04F50040A03E1D40E4F6E02D09C
:1005C800800E4F6E5004006E4F50002600C04FF052
:1005D80000C056F0F0DD3A90536A53505124E96E4A
:1005E800000E5220EA6EEE50000A0BE053505124E0
:1005F800E96E000E5220EA6EEECF55F042DE532A25
:06060800ECD73A8012005D
:10060E0051C0E1FF52C0E2FF300EE66E300EE66ED4
:10061E00300EE66E300EE66E300EE66EE66A040EB4
:10062E005124536E000E5220546E000E501802E1EB
:10063E00000E4F1827E00A0E046E000E056E4FC016
:10064E0000F050C001F0FFDD08C000F009C001F05D
:10065E00300E002653C0E1FF54C0E2FF00C0E6FF9B
:10066E000A0E046E000E056E4FC000F050C001F071
:10067E00EADD00C04FF001C050F0010E535E000ED7
:06068E00545AD3D71200FC
:100694000B800BAE56EF03F0026A0AAEFF0E026E39
:0C06A400016E006E0A360232FF0E1200DA
:1006B000F29E28C041F029C042F02AC043F02BC06E
:1006C00044F04432433242324132449E44BC448E70
:1006D000F28E41C04FF042C050F0450E516E000EF8
:1006E000526E95DF4B6A49C04AF02E0E496E010EDC
:1006F0004F6E010E506E450E516E000E526E4CDF65
:100700008BA408D02D0E456E2D0E466E3E0E476E04
:10071000486A07D03C0E456E2D0E466E2D0E476E74
:10072000486A010E4F6E0E0E506E450E516E000E51
:06073000526E32DF1200E0
:100736000050086E0150006E0250016E0350026EAA
:10074600036A0B6A0C6A9E0E036E0A6A020E0C6E30
:040756002FDE120080
:10075A000450000A12E10550000A0FE10650000A8F
:10076A000CE10750000A09E1FF0E006EFF0E016E50
:10077A007F0E026EFF0E036EA4D0086A096A075044
:10078A00D8B458EF04F00350D8B45CEF04F0025028
:10079A0006180A6E028E068E0E6A02C008F001C0A2
:1007AA000CF000C00DF004500D5E0550D8A0053CB9
:1007BA000C5E0650D8A0063C085E086A0C6A0D6AF0
:1007CA00D8A0EFEF03F0D89002320132003208329B
:1007DA00010E0E6E0750035ED8A0FCEF03F07E0EEA
:1007EA000E240326D8B060EF04F002EF04F07E0E68
:1007FA000E240326D8A064EF04F0180E0B6E0D36F3
:10080A000C3608360036013602360E360450005EC3
:10081A000550D8A0053C015E0650D8A0063C025EF1
:10082A0006340E120EA01DEF04F00D8028EF04F01E
:10083A00045000260550D8B0053C01260650D8B011
:10084A00062802260D900B2E04EF04F04EEF04F05A
:10085A00D8900036013602360E360450005E055036
:10086A00D8A0053C015E0650D8A0063C025E0634BC
:10087A000E10010B0D26D8B00C2AD8B4082AD8A419
:10088A004EEF04F008320C320D32032AD8B460EF6E
:10089A0004F00AAE089E0850026E0C50016E0D500C
:1008AA00006E66EF04F0010E31DD66EF04F0020E11
:1008BA00F1DC66EF04F0040EF4DC66EF04F0080ED7
:0408CA00B7DC120085
:1008CE000B6A0C6A0A6A0350D8B4B1EF04F0028EB8
:1008DE008E0E035E03BE79EF04F0D8B479EF04F008
:1008EE00B5EF04F0036C080E035CD8A090EF04F093
:1008FE00036E013602C001F0026A080E035CD8A036
:10090E0090EF04F00136016A0350D8A4D8909AEF04
:10091E0004F00350D8B49AEF04F0D89002320132AA
:10092E00032E94EF04F00BBC01A0A7EF04F0D8A0A7
:10093E00A7EF04F0012AD8B4022A02BEC4EF04F0D5
:10094E000AAEC9EF04F0021E011E012AD8B4022A13
:10095E00C9EF04F0026A016AC9EF04F00B800BAE16
:10096E00CDEF04F0026A0AAECDEF04F0FF0E026E78
:10097E00016E0A360232CDEF04F0010E0C6E83DEEC
:10098E00CFEF04F0000E0C6ECFEF04F0FF0E0C6EE6
:0A099E000150006E0250016E1200BD
:1009A8001EC001F01FC002F020C003F021C004F0F7
:1009B8002850015E2950025A2A50035A2B50045AD3
:1009C80001C041F002C042F003C043F004C044F04B
:1009D800800E0418006E800E005C08E1000E035CB7
:1009E80005E1000E025C02E1000E015C14E2006AFF
:1009F800016A026A036A4150005E4250015A43503C
:100A0800025A4450035A00C041F001C042F002C0EB
:100A180043F003C044F041C000F042C001F043C0BD
:100A280002F044C003F0030E046E000E056E066E5D
:100A3800076E44DC00C041F001C042F002C043F040
:100A480003C044F041C04FF042C050F0450E516E13
:100A5800000E526E69DC200E4A6E520E4B6E500E1E
:100A68004C6E4D0E4D6E020E4F6E080E506E450EBA
:100A7800516E000E526E8CDD28C01EF029C01FF08A
:0A0A88002AC020F02BC021F012005C
:100A920045DC00C04FF001C050F0410E516E000E17
:100AA200526EB4DD42C041F02E0E426E6D0E456EA6
:100AB2006D0E466E476A020E4F6E010E506E410E6B
:0A0AC200516E000E526E67DD120047
:100ACC0003EC00F0EFDDDFDF69DFF40E3624326E6D
:100ADC00010E3720336E000E3820346E000E392094
:100AEC00356E880E36242E6E130E37202F6E000EA8
:0C0AFC003820306E000E3920316E1200E0
:100B08004050050802E13F50DC0804E2DC0E3F6E6D
:100B1800050E406E3FC024F040C025F0D00E006E98
:100B2800070E016E000E026E000E036E3FC004F049
:100B380040C005F0000E066E076E62EC01F0F7DDAE
:100B4800000E046E000E056E160E066E860E076EFB
:0E0B580000DEB9DE00C022F001C023F0120062
:100B6600939A939893909392939493968A9A8A9849
:100B76008A968A948A928A90D4EC00F0D4EC00F09B
:100B8600D4EC00F08A828A808A8AC6EC00F08A9ABF
:100B9600D4EC00F08A8AC6EC00F08A9AD4EC00F015
:100BA6008A8AC6EC00F08A9AD4EC00F08A908A8A87
:100BB600C6EC00F08A9AD4EC00F08A8AC6EC00F003
:100BC6008A9A8A928A868A8AC6EC00F08A9AD4EC35
:100BD60000F08A968A808A8AC6EC00F08A9A8A9001
:100BE6008A8AC6EC00F08A9AD4EC00F08A8AC6ECAF
:100BF60000F08A9A8A808A8AC6EC00F08A9AD4EC37
:100C060000F08A908A8AC6EC00F08A9A8A868A84DC
:100C16008A828A808A8AC6EC00F08A9AD4EC00F02E
:040C26003A801200FE
:100C2A00FF0E956E0F013B6B936A396BFF0E946E44
:100C3A009494949C3A6B796A786A8B948B9C120090
:100C4A00366A376A386A396A010ECD6E9E90F60E98
:0E0C5A00CF6EA00ECE6E9D80C00EF26E120008
:100C68007EDF010E566EDFEC00F00C0E566EDFECE8
:060C780000F028DF12006D
:100C7E002D500008D8B084D02C6A2CC001F0010E83
:100C8E00006E015004E000360090FF0FFBD70050BD
:100C9E002D14026E016A0250000A02E0010E016E6E
:100CAE000150010AD8A467D02C50000A02E18B74BF
:100CBE0055D02C50010A01E151D02C50020A15E1F9
:100CCE008FEC01F000C03DF001C03EF00A0E002690
:100CDE00000E012200C03DF001C03EF000C03FF00A
:100CEE0001C040F00ADFEBDE39D02C50030A1FE1C1
:100CFE008FEC01F000C03DF001C03EF0000E026E20
:100D0E000150025C02E100500A080FE20A0E3D5C3F
:100D1E00006E000E3E58016E00C03DF001C03EF068
:100D2E0000C03FF001C040F0E8DEC9DE17D02C5005
:100D3E00040A01E113D02C50050A06E1286A296A3B
:100D4E002A6A2B6ABCDE0AD02C50060A02E18B748A
:100D5E0005D02C50070A02E18B7400D02CC001F094
:100D6E00010E006E015004E000360090FF0FFBD71D
:100D7E00001E00502D162C50070A02E02C2A7DD79B
:020D8E00120051
:100D90003950355C08E13850345C05E13750335C3C
:100DA00002E13650325C0DE2F40E3624326E010E52
:100DB0003720336E000E3820346E000E3920356E29
:100DC00077DC3950315C08E13850305C05E1375050
:100DD0002F5C02E136502E5C0DE2880E36242E6E1A
:100DE000130E37202F6E000E3820306E000E392083
:060DF000316EDADD120095
:100DF60019DF286A296A2A6A2B6A000E82B0010E58
:100E06001D6E83CF1CF02D6AE80E3F6E030E406EFA
:100E160078DE266A276A16DF24DF2EDFB6DFFDD7E7
:020E2600FFD7F4
:020000040030CA
:0D000100331F3CFFBD81FF0FC00FE00F401B
:00000001FF
