:10000000E1EF0AF0FFFF120000C019F001C018F084
:1000100002C017F003C016F00DC015F0A1A211D058
:10002000D00E7B6E2A0E7A6EA192010E2C26000E47
:100030002D222E222F2268EC08F0C3EC08F0ACEC45
:1000400008F019C000F018C001F017C002F016C087
:1000500003F015C00DF01100C70E0D6E0D2EFED76A
:10006000000000001200560E0C6EB50E0D6E0D2E27
:10007000FED70C2EFCD7000000001200030E0D6E00
:100080000D2EFED7000000001200000160BF02D05C
:10009000899001D0898060BD02D0899201D0898287
:1000A00060BB02D0899401D0898460B902D089965E
:1000B00001D089861AB002D08A8A01D08A9A8A88A9
:1000C000DDDF8A9860B702D0899001D0898060B561
:1000D00002D0899201D0898260B302D0899401D084
:1000E000898460B102D0899601D089861AB002D085
:1000F0008A8A01D08A9A8A88C1DF8A981AA002D097
:10010000B2DF01D0A9DF12000AAE029E000E12007B
:100110000B820BAE92EF00F0036802680168006882
:100120000A360232FF0E12000B840BAE9FEF00F076
:10013000010E036E026A016A006A0A360232FF0E7D
:100140001200086A096A100E0C6E0134083609366E
:100150000450085E0550D8A0053C095ED8B007D011
:10016000045008260550D8B0053C0926D890003622
:1001700001360C2EEAD712001A905FC060F085DFBE
:100180001A801200026A016A006A086A036A000E95
:1001900012000B800BAED5EF00F0026A0AAEFF0E24
:1001A000026E016E006E0A360232FF0E12005950C6
:1001B000010A03E1800E596E14D05950020A03E17E
:1001C000C00E596E0ED05950030A03E1940E596EB9
:1001D00008D05950040A03E1D40E596E02D0800EA3
:1001E000596E5A04006E5950002600C059F000C0E4
:1001F00060F04BDF1A905D6A5D505B24E96E000E83
:100200005C20EA6EEE50000A0BE05D505B24E96E64
:10021000000E5C20EA6EEECF5FF0AEDF5D2AECD719
:100220001A801200220E0C6E086A096A0A6A0B6AAA
:100230000C06D8B41FD0D8900B320A3209320832DB
:100240000332023201320032D8A0F2D70C06D8B401
:1002500009D0045008260550092206500A220750EA
:100260000B22EAD7045008260550092206500A221C
:1002700007500B22120032C002F033C003F002C05C
:1002800000F003C001F01200550EA76EAA0EA76E73
:100290000E01BF811200550EA76EAA0EA76E0E01A9
:1002A000BF9112005BC0E1FF5CC0E2FF300EE66E62
:1002B000300EE66E300EE66E300EE66E300EE66EF6
:1002C000E66A040E5B245D6E000E5C205E6E000E1E
:1002D0005A1802E1000E591827E00A0E046E000EAB
:1002E000056E59C000F05AC001F02BDF08C000F0C5
:1002F00009C001F0300E00265DC0E1FF5EC0E2FFE4
:1003000000C0E6FF0A0E046E000E056E59C000F034
:100310005AC001F016DF00C059F001C05AF0010EBA
:100320005D5E000E5E5AD3D712000B6A0A6A096A34
:1003300000500402F4CF09F0F3CF08F00150050299
:10034000F4CF0BF0F3CF0AF000500502F35009266A
:10035000F4500A22E86A0B2201500402F3500926E5
:10036000F4500A22E86A0B2208C000F009C001F02C
:100370000AC002F00BC003F012000B6A0B86FF0EDE
:1003800012000CB003EF02F00CA2A9EF02F00E6A0B
:10039000000E02641AEF02F0F00E0214D8A4E5EF8A
:1003A00001F0023A01380F0B02260138F00B016E02
:1003B00000380F0B01260038F00B006E08380F0BC9
:1003C00000260838F00B086E0E84D89002BEFEEFAF
:1003D00001F008360036013602360E2A02BEFEEF64
:1003E00001F008360036013602360E2A02BEFEEF54
:1003F00001F008360036013602360E2A0E5003642C
:100400009FEF02F0035E0BBC08AEA4EF02F0D880B1
:10041000800E08640030000E002201220222D8A0C3
:10042000A4EF02F0023201320032034AA9EF02F0D7
:10043000A4EF02F001C002F000C001F008C000F01B
:10044000086A000E0E86026451EF02F0F00E0214EC
:10045000D8A439EF02F0023A01380F0B0226013816
:10046000F00B016E00380F0B01260038F00B006E08
:100470000E84D89002BEFEEF01F00036013602363F
:100480000E2A02BEFEEF01F00036013602360E2AB9
:1004900002BEFEEF01F00036013602360E2AFEEFF4
:1004A00001F001C002F000C001F0006A000E0E96DB
:1004B0000E8802647EEF02F0F00E0214D8A469EFF9
:1004C00002F0023A01380F0B02260138F00B016EE0
:1004D0000E84D89002BEFEEF01F0013602360E2ADD
:1004E00002BEFEEF01F0013602360E2A02BEFEEF1A
:1004F00001F0013602360E2AFEEF01F001C002F0D3
:10050000016A000E0E860264AEEF02F0F00E0214D5
:10051000D8A48DEF02F0023A0E84D89002BEFEEF0E
:1005200001F002360E2A02BEFEEF01F002360E2A5C
:1005300002BEFEEF01F002360E2AFEEF01F0010EC0
:100540000C6EF2DDB1EF02F0020E0C6EDDDDB1EFEC
:1005500002F0040E0C6EDCDDB1EF02F0080E0C6E42
:1005600011DE12005BC0E1FF5CC0E2FF200EE66E10
:10057000200EE66E200EE66E200EE66E300EE66E63
:10058000E66A040E5B245D6E000E5C205E6E000E5B
:100590005A1802E1000E591827E00A0E046E000EE8
:1005A000056E59C000F05AC001F0CBDD08C000F064
:1005B00009C001F0300E00265DC0E1FF5EC0E2FF21
:1005C00000C0E6FF0A0E046E000E056E59C000F072
:1005D0005AC001F0B6DD00C059F001C05AF0010E5A
:1005E0005D5E000E5E5AD3D712000B6A0C6A0A6A6F
:1005F0000350D8B43FEF03F0028E8E0E035E03BEAD
:1006000007EF03F0D8B407EF03F043EF03F0036CF8
:10061000080E035CD8A01EEF03F0036E013602C083
:1006200001F0026A080E035CD8A01EEF03F0013649
:10063000016A0350D8A4D89028EF03F00350D8B42F
:1006400028EF03F0D89002320132032E22EF03F09C
:100650000BBC01A035EF03F0D8A035EF03F0012A61
:10066000D8B4022A02BE52EF03F00AAE57EF03F0ED
:10067000021E011E012AD8B4022A57EF03F0026AB3
:10068000016A57EF03F00B800BAE5BEF03F0026AD9
:100690000AAE5BEF03F0FF0E026E016E0A36023205
:1006A0005BEF03F0010E0C6E74DD5DEF03F0000EE6
:1006B0000C6E5DEF03F0FF0E0C6E0150006E0250E9
:1006C000016E12004B501808FF0ED8B0000E026EDB
:1006D0004B500D08FF0ED8B0000E016E110E4B5C92
:1006E000FF0ED8B0000E006E01500016025000122E
:1006F000D8A44F6A4C50000AD8A48CD04E50010A9E
:1007000001E1C9DD4B50000A03E14DC0C0FE7ED0BF
:100710004B50010A03E14DC0C1FE78D04B50020A94
:1007200003E14DC0C2FE72D04B50030A03E14DC03D
:10073000C3FE6CD04B50040A03E14DC0C4FE66D02A
:100740004B50050A03E14DC0C5FE60D04B50060A70
:1007500003E14DC0C6FE5AD04B50070A03E14DC01D
:10076000C7FE54D04B50080A03E14DC0C8FE4ED01E
:100770004B50090A03E14DC0C9FE48D04B500A0A4C
:1007800003E14DC0CAFE42D04B500B0A03E14DC0FD
:10079000CBFE3CD04B500C0A03E14DC0CCFE36D012
:1007A0004B500D0A03E14DC0CDFE30D04B50110A25
:1007B00003E14DC0D1FE2AD04B50120A03E14DC0D7
:1007C000D2FE24D04B50130A03E14DC0D3FE1ED0FD
:1007D0004B50140A03E14DC0D4FE18D04B50150AFB
:1007E00003E14DC0D5FE12D04B50160A03E14DC0B7
:1007F000D6FE0CD04B50170A03E14DC0D7FE06D0F1
:100800004B50180A03E14DC0D8FE00D04E50010AEB
:1008100001E13ADD4C50010AD8A474D04E50010ACF
:1008200001E139DD4D50000A03E14BC0E1FE66D025
:100830004D50010A03E14BC0E2FE60D04D50020A68
:1008400003E14BC0E3FE5AD04D50030A03E14BC015
:10085000E4FE54D04D50040A03E14BC0E6FE4ED0F6
:100860004D50050A03E14BC0E7FE48D04D50060A43
:1008700003E14BC0E8FE42D04D50070A03E14BC0F4
:10088000E9FE3CD04D50080A03E14BC0EAFE36D0E9
:100890004D50090A03E14BC0F2FE30D04D500A0A18
:1008A00003E14BC0F3FE2AD04D500B0A03E14BC0CD
:1008B000F4FE24D04D500C0A03E14BC0F7FE1ED0CD
:1008C0004D500D0A03E14BC0F8FE18D04D500E0AF2
:1008D00003E14BC0FCFE12D04D500F0A03E14BC0A8
:1008E000FDFE0CD04D50100A03E14BC0FEFE06D0B9
:1008F0004D50110A03E14BC0FFFE00D04E50010ADB
:1009000001E1C2DC4B50000A06E14CB002D09290EB
:1009100001D09280BDD04B50010A06E14CB002D00C
:10092000929201D09282B4D04B50020A06E14CB0B0
:1009300002D0929A01D0928AABD04B50030A06E1C2
:100940004CB002D0939001D09380A2D04B50040AB7
:1009500006E14CB002D0939201D0938299D04B50D3
:10096000050A06E14CB002D0939401D0938490D054
:100970004B50060A06E14CB002D0939601D0938604
:1009800087D04B50070A06E14CB002D0939801D0B3
:1009900093887ED04B50080A06E14CB002D0939A5F
:1009A00001D0938A75D04B50090A06E14CB002D0B1
:1009B000939C01D0938C6CD04B500A0A06E14CB04A
:1009C00002D0939E01D0938E63D04B500B0A06E168
:1009D0004CB002D0949001D094805AD04B500C0A65
:1009E00006E14CB002D0949201D0948251D04B5089
:1009F0000D0A06E14CB002D0949401D0948448D002
:100A00004B50110A06E14CB002D0949C01D0948C5A
:100A10003FD04B50120A06E14CB002D0949E01D058
:100A2000948E36D04B50130A06E14CB002D0959408
:100A300001D095842DD04B50140A06E14CB002D061
:100A4000959601D0958624D04B50150A06E14CB0FE
:100A500002D0959801D095881BD04B50160A06E11C
:100A60004CB002D0959A01D0958A12D04B50170AFB
:100A700006E14CB002D0959C01D0958C09D04B502A
:100A8000180A06E14CB002D0959E01D0958E00D098
:100A90004FC000F012003BEC01F000C059F001C063
:100AA0005AF04B0E5B6E000E5C6E52EC01F04CC0C7
:100AB0004BF02E0E4C6E6D0E4F6E6D0E506E516AD9
:100AC000020E596E010E5A6E4B0E5B6E000E5C6E7E
:100AD000D7EC00F012000450000A12E10550000AA1
:100AE0000FE10650000A0CE10750000A09E1FF0E71
:100AF000006EFF0E016E7F0E026EFF0E036EA8D019
:100B0000086A096A0750D8B416EF06F00350D8B443
:100B10001BEF06F0025006180A6E028E068E0E6A51
:100B200002C008F001C00CF000C00DF004500D5ED2
:100B30000550D8A0053C0C5E0650D8A0063C085EC7
:100B4000086A0C6A0D6AD8A0ADEF05F0D8900232A1
:100B5000013200320832010E0E6E0750035ED8A03B
:100B6000BAEF05F07E0E0E240326D8B020EF06F073
:100B7000C0EF05F07E0E0E240326D8A025EF06F068
:100B8000180E0B6E0D360C3608360036013602365E
:100B90000E360450005E0550D8A0053C015E06509C
:100BA000D8A0063C025E06340E120EA0DBEF05F064
:100BB0000D80E6EF05F0045000260550D8B0053C46
:100BC00001260650D8B0062802260D900B2EC2EF43
:100BD00005F00CEF06F0D8900036013602360E36DE
:100BE0000450005E0550D8A0053C015E0650D8A018
:100BF000063C025E06340E10010B0D26D8B00C2AFE
:100C0000D8B4082AD8A40CEF06F008320C320D3202
:100C1000032AD8B420EF06F00AAE089E0850026EF0
:100C20000C50016E0D50006E28EF06F0010EBDEC69
:100C300001F028EF06F0020EC2EC00F028EF06F0FB
:100C4000040E88EC00F028EF06F0080E94EC00F09B
:100C50001200F29E1BC04BF01CC04CF01DC04DF0AA
:100C60001EC04EF04E324D324C324B324E9E4EBC78
:100C70004E8EF28E4BC059F04CC05AF04F0E5B6E48
:100C8000000E5C6E52EC01F0556A53C054F02E0E0B
:100C9000536E010E596E010E5A6E4F0E5B6E000EB2
:100CA0005C6ED7EC00F08AA608D02D0E4F6E2D0E8C
:100CB000506E3E0E516E526A07D03C0E4F6E2D0E96
:100CC000506E2D0E516E526A010E596E0E0E5A6EF6
:100CD0004F0E5B6E000E5C6ED7EC00F0120023C06E
:100CE00001F024C002F025C003F026C004F01B5020
:100CF000015E1C50025A1D50035A1E50045A01C076
:100D00004BF002C04CF003C04DF004C04EF0800E1A
:100D10000418006E800E005C08E1000E035C05E123
:100D2000000E025C02E1000E015C14E2006A016A3E
:100D3000026A036A4B50005E4C50015A4D50025AF1
:100D40004E50035A00C04BF001C04CF002C04DF0B1
:100D500003C04EF04BC000F04CC001F04DC002F09B
:100D60004EC003F0030E046E000E056E066E076E95
:100D700012EC01F000C04BF001C04CF002C04DF08D
:100D800003C04EF04BC059F04CC05AF04F0E5B6E92
:100D9000000E5C6EB2EC02F0200E546E520E556ED8
:100DA000500E566E4D0E576E020E596E080E5A6E4C
:100DB0004F0E5B6E000E5C6ED7EC00F01BC023F094
:100DC0001CC024F01DC025F01EC026F01200570ED6
:100DD0000D6E0D2EFED7000000001200010E006EF9
:100DE000000E016ECB500026D8B0012A4BC004F093
:100DF000000E056E95EC01F0060E026E00C004F0C8
:100E000001C005F0025005E005320432059EFF0FD7
:100E1000FAD7040E016E04C000F0015004E0003661
:100E20000090FF0FFBD7300E0014036E04C000F0DB
:100E300005C001F001320032019E01320032019EF4
:100E400000C0BBFF0F0EBA160350BA1212000050BA
:100E5000086E0150006E0250016E0350026E036A6C
:100E60000B6A0C6A9E0E036E0A6A020E0C6EC1ECCF
:100E700001F01200CA840C0EBA12120047C034F0FE
:100E800047C04BF0ABDF1200BB6ABA98BA9A1200A7
:100E9000000166516A5D02E16551695D02E2016A25
:100EA0000AD06851665D02E16751655D02E2016A40
:100EB00002D0FF0E016E01C000F01200C30EC21678
:100EC00065C000F000360090003600900050C2125D
:100ED0007EDFC282C2A202D00000FCD7C4CF01F0E4
:100EE000006AC35000100001666F01C067F0000E79
:100EF000671366C000F067C001F0120047C04BF0F6
:100F000048C04CF049C04DF04E6A62EC03F000C09E
:100F10004AF04AC000F01200C30EC216030EC112FE
:100F2000C19C180EC112C18E47C000F0003600905F
:100F3000003600900050C212C28049DFC282C2A2B5
:100F400002D00000FCD7C290C4CF01F0006AC350A9
:100F50000010486E01C049F0000E491248C000F070
:100F600049C001F012004850050802E14750DC0872
:100F700004E2DC0E476E050E486E47C032F048C0F2
:100F800033F0D00E006E070E016E000E026E000EE2
:100F9000036E47C004F048C005F0000E066E076EF1
:100FA00012EC01F054DF000E046E000E056E160EFA
:100FB000066E860E076E8FDDF5EC02F000C030F095
:100FC00001C031F0120003EC00F043DE64DD87DE87
:100FD000640E2C241F6E000E2D20206E000E2E207D
:100FE000216E000E2F20226EE80E2C243F6E030E81
:100FF0002D20406E000E2E20416E000E2F20426EDE
:10100000120034C001F001C000F012009398939ACE
:1010100092969294929292908A988A9A89908992C2
:101020008994899633EC00F033EC00F033EC00F057
:10103000898489868A883EEC00F08A9833EC00F037
:101040008A883EEC00F08A9833EC00F08A883EEC07
:1010500000F08A9833EC00F089968A883EEC00F024
:101060008A9833EC00F08A883EEC00F08A988994E4
:1010700089808A883EEC00F08A9833EC00F08990F1
:1010800089868A883EEC00F08A9889968A883EECA8
:1010900000F08A9833EC00F08A883EEC00F08A98E1
:1010A00089868A883EEC00F08A9833EC00F08996B5
:1010B0008A883EEC00F08A988980898289848986B2
:1010C0008A883EEC00F08A9833EC00F01A80120017
:1010D000016A83BE012A0150431827E0026A83BED9
:1010E000022A016A81B2012A02500118000ED8A416
:1010F000FF0E006E00C003F0005207E0010E1B2639
:10110000000E1C221D221E2206D0010E1B5E000EA8
:101110001C5A1D5A1E5A29500318D8A48A7603C097
:1011200029F03050392631503A22000E83BE010E8C
:10113000436E1200BC0E3B6E0E0E3C6E650E3D6E95
:10114000000E3E6EC30EC216030EC112C19C180ED5
:10115000C112C18EC28012008CAC04D08C9C040ED3
:10116000286E10D02850000A0CE1070E3A5C02E10C
:10117000D00E395C05E38C8CD00E395E070E3A5ADE
:1011800001D028061200080E0001656F97DE00C02E
:1011900061F001C062F0080E656F90DE00C061F082
:1011A00001C062F02B6A00C065F001C066F0676B99
:1011B000686B2A0E696F010E6A6F6ADE0052D8A44E
:1011C0002B8861C065F062C066F0430E676F010E48
:1011D000686F1A0E696F030E6A6F5ADE0052D8A448
:1011E0002B8461C065F062C066F0E10E676F030E8C
:1011F000686F340E696F060E6A6F4ADE0052D8A41B
:101200002B8661C065F062C066F0660E676F060EE1
:10121000686F040E696F090E6A6F3ADE0052D8A437
:101220002B8261C065F062C066F0AA0E676F0A0E7D
:10123000686F370E696F0C0E6A6F2ADE0052D8A4F1
:101240002B8082BC02D02B9A01D02B8A82BE02D086
:101250002B9C01D02B8C83B602D02B9E01D02B8EE1
:1012600044508318636F646B000E641B000E646F40
:10127000000E006E6451005C02E16351000850E210
:10128000276A27C002F0010E006E000E016E0250A8
:1012900005E0003600900136FF0FFAD700506315C5
:1012A000026E64510114036E016A000E031802E11C
:1012B000000E021802E0010E016E0150010AFF0E3D
:1012C000D8A4000E036E27C001F0010E006E01507D
:1012D00004E000360090FF0FFBD700502B14026E85
:1012E000016A0250000A02E0010E016E0150000A7C
:1012F000FF0ED8A4000E006E035000160CE027C0AD
:1013000001F0010E006E015004E000360090FF0F66
:10131000FBD700502A122750070A02E0272AB1D72C
:101320002BC044F01200F26AF16AF06AD09E9D6A06
:10133000A06AA36A9E6AA16AA46AD26AD16A0F01EE
:10134000256BDF0E486F1E0E496FFF0E926EFF0E6B
:10135000936EFF0E946EFF0E956EFF0E966E959C2B
:10136000939694929390F28EF28CF18E968C12005A
:101370002F50385C08E12E50375C05E12D50365C6B
:1013800002E12C50355C2DE20A0E2C24356E000E45
:101390002D20366E000E2E20376E000E2F20386E58
:1013A000050E476EB9DD00C045F001C046F0050EE0
:1013B000476EB2DD00C045F001C046F000C045F008
:1013C00001C046F046324532469E46324532469E80
:1013D00046324532469E46324532469E45C047F02B
:1013E0004DDD12002F50225C08E12E50215C05E1FA
:1013F0002D50205C02E12C501F5C0DE2190E2C24B4
:101400001F6E000E2D20206E000E2E20216E000E6D
:101410002F20226E1EDC2F50425C08E12E50415CD2
:1014200005E12D50405C02E12C503F5C0DE2E80EDE
:101430002C243F6E030E2D20406E000E2E20416E98
:10144000000E2F20426E4BDC1200E0DD010E000189
:10145000606F45EC00F00C0E606F45EC00F0B3DD02
:1014600012002A500008D8B085D0276A27C001F0A2
:10147000010E006E015004E000360090FF0FFBD714
:1014800000502A14026E016A0250000A02E0010EA6
:10149000016E0150010AD8A468D02750000A02E169
:1014A0008A7656D02750010A01E152D02750020A0D
:1014B00015E13BEC01F000C045F001C046F00A0E1A
:1014C0000026000E012200C045F001C046F000C019
:1014D00047F001C048F047DD76DD3AD02750030AD7
:1014E0001FE13BEC01F000C045F001C046F0000EEA
:1014F000026E0150025C02E100500A080FE20A0E7F
:10150000455C006E000E4658016E00C045F001C0FB
:1015100046F000C047F001C048F025DD54DD18D08A
:101520002750040A02E16DDD13D02750050A06E1B9
:101530001B6A1C6A1D6A1E6A46DD0AD02750060A0D
:1015400002E18A7605D02750070A02E18A7600D0A8
:1015500027C001F0010E006E015004E0003600903B
:10156000FF0FFBD7001E00502A162750070A02E083
:10157000272A7CD71200796AD00E7B6E2A0E7A6EEB
:10158000A182A0822C6A2D6A2E6A2F6A79801200AD
:10159000356A366A376A386A4BEC01F0030E476EDB
:1015A000486A0E0E496EAADC44EC01F0CA90CA9259
:1015B000CA80CA824A0ECB6E67DC5CDC476A5EDC9E
:1015C00012009B8C9C0E0C6ED70E0D6E0D2EFED74E
:1015D0000C2EFCD7A8DE8B92ADDD446A000E83BED4
:1015E000010E436E2A6A1B6A1C6A1D6A1E6A396AEA
:1015F0003A6AE80E476E030E486EB5DCBCDFC8DF02
:1016000024DF8B82040E0B6E0C0E0C6E330E0D6EEF
:101610000D2EFED70C2EFCD70B2EFAD700000000A3
:101620008B92040E0B6E0C0E0C6E330E0D6E0D2E87
:10163000FED70C2EFCD70B2EFAD7000000008B82B1
:10164000040E0B6E0C0E0C6E330E0D6E0D2EFED7AF
:101650000C2EFCD70B2EFAD7000000008B9201DF76
:10166000C1DE86DEFCD7FFD7FFFFFFFFFFFFFFFFD6
:020000040001F9
:08FFF800AAF7FDFFFFF8FFFB73
:00000001FF
