:040000004AEF0BF0C8
:020006001200E6
:1000080000C017F001C016F002C015F0A1A211D06F
:10001800F80E7B6E300E7A6EA192010E3026000E1D
:100028003122322233229BEC08F0DCEC08F0F3ECAE
:1000380008F017C000F016C001F015C002F011005A
:0E004800C70E0D6E0D2EFED700000000120038
:10005600560E0C6EB50E0D6E0D2EFED70C2EFCD761
:0600660000000000120082
:0E006C00030E0D6E0D2EFED7000000001200D8
:10007A0000016CBF02D0899001D089806CBD02D08A
:10008A00899201D089826CBB02D0899401D089847B
:10009A006CB902D0899601D089861CB002D08A8AAE
:1000AA0001D08A9A8A88DDDF8A986CB702D0899053
:1000BA0001D089806CB502D0899201D089826CB353
:1000CA0002D0899401D089846CB102D0899601D07A
:1000DA0089861CB002D08A8A01D08A9A8A88C1DFAE
:0E00EA008A981CA002D0B2DF01D0A9DF12005C
:0800F8000AAE029E000E120088
:100100000B820BAE8AEF00F003680268016800689A
:080110000A360232FF0E120054
:0C0118001C906BC06CF0ADDF1C8012006E
:100124000B840BAE9DEF00F0010E036E026A016AB0
:0A013400006A0A360232FF0E1200C4
:0E013E00026A016A006A086A036A000E120073
:10014C00086A096A100E0C6E013408360936045020
:10015C00085E0550D8A0053C095ED8B007D0045005
:10016C0008260550D8B0053C0926D8900036013633
:06017C000C2EEAD7120070
:10018200220E0C6E086A096A0A6A0B6A0C06D8B457
:100192001FD0D8900B320A320932083203320232AF
:1001A20001320032D8A0F2D70C06D8B409D00450DC
:1001B20008260550092206500A2207500B22EAD7C8
:1001C200045008260550092206500A2207500B2225
:0201D200120019
:1001D40067C0E1FF68C0E2FF200EE66E200EE66E07
:1001E400200EE66E200EE66E300EE66EE66A040E13
:1001F40000016725696F000E68216A6F000E661999
:1002040002E1000E651927E00A0E046E000E056E69
:1002140065C000F066C001F097DF08C000F009C0B7
:1002240001F0300E002669C0E1FF6AC0E2FF00C0A1
:10023400E6FF0A0E046E000E056E65C000F066C08F
:1002440001F082DF00C065F001C066F0010E695F55
:08025400000E6A5BD3D7120013
:0E025C00550EA76EAA0EA76E0E01BF811200EE
:10026A0038C002F039C003F002C000F003C001F048
:02027A00120070
:10027C0000016551010A03E1800E656F14D06551D0
:10028C00020A03E1C00E656F0ED06551030A03E14B
:10029C00940E656F08D06551040A03E1D40E656FA6
:1002AC0002D0800E656F6605006E6551002600C099
:1002BC0065F000C06CF0DBDE1C90696B6951672542
:1002CC00E96E000E6821EA6EEE50000A0BE06951EF
:1002DC006725E96E000E6821EA6EEECF6BF016DF33
:0802EC00692BECD71C80120005
:1002F40067C0E1FF68C0E2FF300EE66E300EE66EC6
:10030400300EE66E300EE66E300EE66EE66A040ED1
:1003140000016725696F000E68216A6F000E661977
:1003240002E1000E651927E00A0E046E000E056E48
:1003340065C000F066C001F007DF08C000F009C026
:1003440001F0300E002669C0E1FF6AC0E2FF00C080
:10035400E6FF0A0E046E000E056E65C000F066C06E
:1003640001F0F2DE00C065F001C066F0010E695FC5
:08037400000E6A5BD3D71200F2
:10037C000B6A0A6A096A00500402F4CF09F0F3CF41
:10038C0008F001500502F4CF0BF0F3CF0AF0005047
:10039C000502F3500926F4500A22E86A0B22015098
:1003AC000402F3500926F4500A22E86A0B2208C012
:1003BC0000F009C001F00AC002F00BC003F01200FB
:0E03CC00550EA76EAA0EA76E0E01BF9112006D
:1003DA000B800BAEF9EF01F0026A0AAEFF0E026E55
:0C03EA00016E006E0A360232FF0E120097
:1003F6000CB03DEF02F00CA2E3EF02F00E6A000E25
:10040600026454EF02F0F00E0214D8A41FEF02F0BB
:10041600023A01380F0B02260138F00B016E003844
:100426000F0B01260038F00B006E08380F0B002664
:100436000838F00B086E0E84D89002BE38EF02F032
:1004460008360036013602360E2A02BE38EF02F0B2
:1004560008360036013602360E2A02BE38EF02F0A2
:1004660008360036013602360E2A0E500364D9EFDE
:1004760002F0035E0BBC08AEDEEF02F0D880800E01
:1004860008640030000E002201220222D8A0DEEF0E
:1004960002F0023201320032034AE3EF02F0DEEFED
:1004A60002F001C002F000C001F008C000F0086AC6
:1004B600000E0E8602648BEF02F0F00E0214D8A432
:1004C60073EF02F0023A01380F0B02260138F00BE7
:1004D600016E00380F0B01260038F00B006E0E84FB
:1004E600D89002BE38EF02F00036013602360E2AE8
:1004F60002BE38EF02F00036013602360E2A02BE80
:1005060038EF02F00036013602360E2A38EF02F0D6
:1005160001C002F000C001F0006A000E0E960E88BF
:100526000264B8EF02F0F00E0214D8A4A3EF02F0B2
:10053600023A01380F0B02260138F00B016E0E84C9
:10054600D89002BE38EF02F0013602360E2A02BEFD
:1005560038EF02F0013602360E2A02BE38EF02F0FC
:10056600013602360E2A38EF02F001C002F0016AA7
:10057600000E0E860264E8EF02F0F00E0214D8A414
:10058600C7EF02F0023A0E84D89002BE38EF02F0AE
:1005960002360E2A02BE38EF02F002360E2A02BEDC
:1005A60038EF02F002360E2A38EF02F0010E0C6E1A
:1005B600B6DDEBEF02F0020E0C6E9BDDEBEF02F008
:1005C600040E0C6E9ADDEBEF02F0080E0C6EB4DD35
:0205D600120011
:0805D8000B6A0B86FF0E1200F6
:1005E00057503024346E58503120356E000E322072
:0C05F000366E000E3320376E8B82120036
:1005FC000050086E0150006E0250016E0350026EE6
:10060C00036A0B6A0C6A9E0E036E0A6A020E0C6E6B
:04061C00ECDE1200FE
:0E062000570E0D6E0D2EFED7000000001200CA
:10062E0057501808FF0ED8B0000E026E57500D0826
:10063E00FF0ED8B0000E016E110E575CFF0ED8B033
:10064E00000E006E0150001602500012D8A45B6A14
:10065E005850000AD8A48CD05A50010A01E1AFDEDE
:10066E005750000A03E159C0C0FE7ED05750010A10
:10067E0003E159C0C1FE78D05750020A03E159C0B8
:10068E00C2FE72D05750030A03E159C0C3FE6CD0AC
:10069E005750040A03E159C0C4FE66D05750050AEC
:1006AE0003E159C0C5FE60D05750060A03E159C098
:1006BE00C6FE5AD05750070A03E159C0C7FE54D0A0
:1006CE005750080A03E159C0C8FE4ED05750090AC8
:1006DE0003E159C0C9FE48D057500A0A03E159C078
:1006EE00CAFE42D057500B0A03E159C0CBFE3CD094
:1006FE0057500C0A03E159C0CCFE36D057500D0AA4
:10070E0003E159C0CDFE30D05750110A03E159C054
:10071E00D1FE2AD05750120A03E159C0D2FE24D07E
:10072E005750130A03E159C0D3FE1ED05750140A76
:10073E0003E159C0D4FE18D05750150A03E159C031
:10074E00D5FE12D05750160A03E159C0D6FE0CD072
:10075E005750170A03E159C0D7FE06D05750180A52
:10076E0003E159C0D8FE00D05A50010A01E16FDDF5
:10077E005850010AD8A474D05A50010A01E11FDE64
:10078E005950000A03E157C0E1FE66D05950010AE4
:10079E0003E157C0E2FE60D05950020A03E157C090
:1007AE00E3FE5AD05950030A03E157C0E4FE54D079
:1007BE005950040A03E157C0E6FE4ED05950050ABF
:1007CE0003E157C0E7FE48D05950060A03E157C06F
:1007DE00E8FE42D05950070A03E157C0E9FE3CD06B
:1007EE005950080A03E157C0EAFE36D05950090A9B
:1007FE0003E157C0F2FE30D059500A0A03E157C048
:10080E00F3FE2AD059500B0A03E157C0F4FE24D050
:10081E0059500C0A03E157C0F7FE1ED059500D0A6D
:10082E0003E157C0F8FE18D059500E0A03E157C025
:10083E00FCFE12D059500F0A03E157C0FDFE0CD03A
:10084E005950100A03E157C0FEFE06D05950110A46
:10085E0003E157C0FFFE00D05A50010A01E1F7DC58
:10086E005750000A06E158B002D0929001D0928003
:10087E00BDD05750010A06E158B002D0929201D075
:10088E009282B4D05750020A06E158B002D0929A22
:10089E0001D0928AABD05750030A06E158B002D06D
:1008AE00939001D09380A2D05750040A06E158B01D
:1008BE0002D0939201D0938299D05750050A06E147
:1008CE0058B002D0939401D0938490D05750060A1A
:1008DE0006E158B002D0939601D0938687D0575038
:1008EE00070A06E158B002D0939801D093887ED0C3
:1008FE005750080A06E158B002D0939A01D0938A55
:10090E0075D05750090A06E158B002D0939C01D019
:10091E00938C6CD057500A0A06E158B002D0939EC1
:10092E0001D0938E63D057500B0A06E158B002D017
:10093E00949001D094805AD057500C0A06E158B0CA
:10094E0002D0949201D0948251D057500D0A06E1F4
:10095E0058B002D0949401D0948448D05750110AC4
:10096E0006E158B002D0949C01D0948C3FD05750E1
:10097E00120A06E158B002D0949E01D0948E36D061
:10098E005750130A06E158B002D0959401D09584C1
:10099E002DD05750140A06E158B002D0959601D0CA
:1009AE00958624D05750150A06E158B002D0959876
:1009BE0001D095881BD05750160A06E158B002D0C8
:1009CE00959A01D0958A12D05750170A06E158B061
:1009DE0002D0959C01D0958C09D05750180A06E18B
:1009EE0058B002D0959E01D0958E00D05BC000F01D
:0209FE001200E5
:100A000034DC00C065F001C066F0570E0001676F6E
:100A1000000E686F6FDC58C057F02E0E586E6D0ECA
:100A20005B6E6D0E5C6E5D6A020E656F010E666F29
:0C0A3000570E676F000E686F21DC12008B
:100A3C000B6A0C6A0A6A0350D8B468EF05F0028E90
:100A4C008E0E035E03BE30EF05F0D8B430EF05F028
:100A5C006CEF05F0036C080E035CD8A047EF05F0B3
:100A6C00036E013602C001F0026A080E035CD8A0C6
:100A7C0047EF05F00136016A0350D8A4D89051EF26
:100A8C0005F00350D8B451EF05F0D8900232013282
:100A9C00032E4BEF05F00BBC01A05EEF05F0D8A0C8
:100AAC005EEF05F0012AD8B4022A02BE7BEF05F0F6
:100ABC000AAE80EF05F0021E011E012AD8B4022AEC
:100ACC0080EF05F0026A016A80EF05F00B800BAE37
:100ADC0084EF05F0026A0AAE84EF05F0FF0E026E99
:100AEC00016E0A36023284EF05F0010E0C6E6FDCDB
:100AFC0086EF05F0000E0C6E86EF05F0FF0E0C6E07
:0A0B0C000150006E0250016E12004D
:100B1600010E006E000E016ECB500026D8B0012AE1
:100B260057C004F0000E056E26DC060E026E00C0ED
:100B360004F001C005F0025005E005320432059EBE
:100B4600FF0FFAD7040E016E04C000F0015004E056
:100B560000360090FF0FFBD7300E0014036E04C062
:100B660000F005C001F001320032019E0132003270
:100B7600019E00C0BBFF0F0EBA160350BA12120038
:100B86000450000A12E10550000A0FE10650000A5F
:100B96000CE10750000A09E1FF0E006EFF0E016E20
:100BA6007F0E026EFF0E036EA7D0086A096A075011
:100BB600D8B46EEF06F00350D8B472EF06F00250C8
:100BC60006180A6E028E068E0E6A02C008F001C072
:100BD6000CF000C00DF004500D5E0550D8A0053C89
:100BE6000C5E0650D8A0063C085E086A0C6A0D6AC0
:100BF600D8A005EF06F0D890023201320032083252
:100C0600010E0E6E0750035ED8A012EF06F07E0EA0
:100C16000E240326D8B077EF06F018EF06F07E0E06
:100C26000E240326D8A07CEF06F0180E0B6E0D36A8
:100C36000C3608360036013602360E360450005E93
:100C46000550D8A0053C015E0650D8A0063C025EC1
:100C560006340E120EA033EF06F00D803EEF06F0BE
:100C6600045000260550D8B0053C01260650D8B0E1
:100C7600062802260D900B2E1AEF06F064EF06F0FA
:100C8600D8900036013602360E360450005E055006
:100C9600D8A0053C015E0650D8A0063C025E06348C
:100CA6000E10010B0D26D8B00C2AD8B4082AD8A4E9
:100CB60064EF06F008320C320D32032AD8B477EF0F
:100CC60006F00AAE089E0850026E0C50016E0D50DA
:100CD600006E7FEF06F0010E7CDC7FEF06F0020E61
:100CE6009FEC00F07FEF06F0040E80EC00F07FEF43
:0A0CF60006F0080E92EC00F0120068
:100D000042C001F043C002F044C003F045C004F00B
:100D10002450015E2550025A2650035A2750045A87
:100D200001C057F002C058F003C059F004C05AF097
:100D3000800E0418006E800E005C08E1000E035C5B
:100D400005E1000E025C02E1000E015C14E2006AA3
:100D5000016A026A036A5750005E5850015A59509E
:100D6000025A5A50035A00C057F001C058F002C04E
:100D700059F003C05AF057C000F058C001F059C0F4
:100D800002F05AC003F0030E046E000E056E066EEC
:100D9000076EC1EC00F000C057F001C058F002C06F
:100DA00059F003C05AF057C065F058C066F05B0EAA
:100DB0000001676F000E686FEAEC00F0200E606FB4
:100DC000520E616F500E626F4D0E636F020E656FB3
:100DD000080E666F5B0E676F000E686F3EEC01F0E9
:100DE00024C042F025C043F026C044F027C045F09F
:020DF0001200EF
:100DF200F29E24C057F025C058F026C059F027C0F3
:100E02005AF05A325932583257325A9E5ABC5A8E76
:100E1200F28E57C065F058C066F05B0E0001676F36
:100E2200000E686F7AEC01F0616B5FC060F02E0E0D
:100E32005F6E010E656F010E666F5B0E676F000ECF
:100E4200686F3EEC01F08AA608D02D0E5B6E2D0E67
:100E52005C6E3E0E5D6E5E6A07D03C0E5B6E2D0EC2
:100E62005C6E2D0E5D6E5E6A010E656F0E0E666F14
:0E0E72005B0E676F000E686F3EEC01F0120021
:0C0E800051C01DF051C057F046DE1200BA
:080E8C00BB6ABA98BA9A120081
:100E9400C30EC21651C000F0003600900036009018
:100EA4000050C21210EC03F0C282C2A202D00000B1
:100EB400FCD7C4CF01F0006AC3500010526E01C0C9
:100EC40053F0000E531252C000F053C001F0120050
:100ED40000016E513024346E6F513120356E000E96
:0E0EE4003220366E000E3320376E8B821200E5
:080EF200CA840C0EBA121200B2
:100EFA0051C057F052C058F053C059F05A6A17EC13
:0C0F0A0003F000C054F054C000F01200CE
:100F16005250565C02E15150555C02E2016A0AD019
:100F26005450525C02E15350515C02E2016A02D015
:0A0F3600FF0E016E01C000F0120072
:100F40005250050802E15150DC0804E2DC0E516EFB
:100F5000050E526E51C038F052C039F0FA0E006ED4
:100F6000000E016E000E026E000E036E51C004F002
:100F700052C005F0000E066E076EC1EC00F0FEECEC
:100F800002F0000E046E000E056E160E066E830E45
:100F9000076EF9DD53DD00C01EF001C01FF0120026
:100FA00030C001F031C002F032C003F033C004F0B1
:100FB0003A50015E3B50025A3C50035A3D50045A8D
:100FC0000450000808E10350000805E102500B0836
:100FD00002E10150B8080FE28A7630C03AF031C021
:100FE0003BF032C03CF033C03DF0320E576E000E85
:080FF000586EF0EC02F0120053
:100FF80003EC00F0FADE00DD7FDE580E30243E6E92
:10100800020E31203F6E000E3220406E000E33205B
:10101800416E700E3024466E170E3120476E000E5A
:0C1028003220486E000E3320496E12008A
:101034009398939A92969294929292908A988A9A7A
:1010440089908992899489962BEC00F02BEC00F01E
:101054002BEC00F0898489868A8836EC00F08A9823
:101064002BEC00F08A8836EC00F08A982BEC00F028
:101074008A8836EC00F08A982BEC00F089968A88EE
:1010840036EC00F08A982BEC00F08A8836EC00F0FD
:101094008A98899489808A8836EC00F08A982BECA7
:1010A40000F0899089868A8836EC00F08A988996BF
:1010B4008A8836EC00F08A982BEC00F08A8836ECAB
:1010C40000F08A9889868A8836EC00F08A982BEC9E
:1010D40000F089968A8836EC00F08A9889808982A3
:1010E400898489868A8836EC00F08A982BEC00F093
:0410F4001C8012004A
:1010F800796AF80E7B6E300E7A6EA182A082306A11
:0A110800316A326A336A79801200FE
:10111200940E186E0E0E196E510E1A6E000E1B6E84
:10112200C30EC216030EC112C19C180EC112C18E8B
:04113200C280120065
:10113600016A83BE012A01502E1836E0026A83BE78
:10114600022A016A81B2012A02500118000ED8A4AF
:10115600FF0E006E00C06DF0005207E0010E24265F
:10116600000E25222622272206D0010E245E000E1E
:10117600255A265A275A2F5000016D19D8A48A7667
:101186006DC02FF0000E006E2950005C02E1285061
:10119600FA0806E20001F40E6E6F010E6F6F97DE1D
:1011A6001E5028261F502922000E83BE010E2E6EC9
:0211B600120025
:1011B8008CAC04D08C9C010E2D6E10D02D50000AE2
:1011C8000CE1000E295C02E1FA0E285C05E38C8C28
:0E11D800FA0E285E000E295A01D02D061200D4
:1011E6008BA20DD03750335C08E13650325C05E1F6
:1011F6003550315C02E13450305CD8B08B9212002D
:10120600080E516E44DE00C04AF001C04BF04E6A33
:1012160000C051F001C052F0536A546A2A0E556E4E
:10122600010E566E75DE0052D8A44E884AC051F0A3
:101236004BC052F0430E536E010E546E1A0E556E8D
:10124600030E566E65DE0052D8A44E844AC051F095
:101256004BC052F0E10E536E030E546E340E556EB3
:10126600060E566E55DE0052D8A44E864AC051F080
:101276004BC052F0660E536E060E546E040E556E3B
:10128600090E566E45DE0052D8A44E824AC051F071
:101296004BC052F0AA0E536E0A0E546E370E556EA0
:1012A6000C0E566E35DE0052D8A44E8082BC02D09B
:1012B6004E9A01D04E8A82BE02D04E9C01D04E8CF0
:1012C60083B602D04E9E01D04E8E2B504E184C6ED9
:1012D6004D6A000E4D1A000E4D6E000E006E4D50FA
:1012E600005C02E14C50000859E22C6A2CC002F066
:1012F600010E006E000E016E025005E000360090F1
:101306000136FF0FFAD700504C14026E4D500114EF
:10131600036E016A000E031802E1000E021802E0D5
:10132600010E016E0150010AFF0ED8A4000E036ED5
:101336002CC001F0010E006E015004E00036009052
:10134600FF0FFBD700504E14026E016A0250000ACE
:1013560002E0010E016E0150000AFF0ED8A4000E35
:10136600006E0350001615E02CC001F0010E006E51
:10137600015004E000360090FF0FFBD700502A1200
:10138600060E2C5C06E2050E576E000E586EF0EC4B
:1013960002F02C50070A02E02C2AA8D74EC02BF0E8
:1013A6002A500008D8B08FD02C6A2CC001F0010E4C
:1013B600006E015004E000360090FF0FFBD700508E
:1013C6002A14026E016A0250000A02E0010E016E42
:1013D6000150010AD8A472D02C50000A06E1246AF2
:1013E600256A266A276A05DE5CD02C50010A06E1CA
:1013F6008A96900E2826D00E292253D02C50040A05
:1014060006E18A86900E2826D00E29224AD02C5034
:10141600020A15E135EC01F000C04FF001C050F0B2
:101426000A0E0026000E012200C04FF001C050F047
:1014360000C051F001C052F080DDDBDD32D02C500F
:10144600030A1FE135EC01F000C04FF001C050F077
:10145600000E026E0150025C02E100500A080FE223
:101466000A0E4F5C006E000E5058016E00C04FF021
:1014760001C050F000C051F001C052F05EDDB9DD90
:1014860010D02C50050A03E1516AF7DC0AD02C5023
:10149600060A02E182DD05D02C50070A02E17DDD55
:1014A60000D02CC001F0010E006E015004E00036A1
:1014B6000090FF0FFBD7001E00502A162C50070A7B
:0814C60002E02C2A72D712008B
:1014CE003350415C08E13250405C05E131503F5CE5
:1014DE0002E130503E5C0DE2960E30243E6E000E60
:1014EE0031203F6E000E3220406E000E3320416ED2
:1014FE0079DC3350495C08E13250485C05E13150EB
:10150E00475C02E13050465C0EE2700E3024466EAF
:10151E00170E3120476E000E3220486E000E33201B
:08152E00496E80EC06F012008A
:101536003350235C08E13250225C05E13150215CD6
:1015460002E13050205C54E23C0E3024206E000E46
:101556003120216E000E3220226E000E3320236EC3
:10156600F29E050E516E93DC00C04AF001C04BF0AE
:10157600050E516E8CDC00C04AF001C04BF0050E22
:10158600516E85DC00C04AF001C04BF0050E516E6D
:101596007EDC00C04AF001C04BF0050E516E77DCD0
:1015A60000C04AF001C04BF0050E516E70DC00C061
:1015B6004AF001C04BF0050E516E69DC00C04AF0DE
:1015C60001C04BF04A6A4B6A4C6A050E516E5FDCED
:1015D60000504A2601504B224C500F0A02E04C2A7A
:1015E600F4D7F28E4BC04AF04B6A4AC051F045DC44
:0215F6001200E1
:1015F8001DDD010E00016C6F3DEC00F00C0E6C6FF0
:081608003DEC00F0F5DC1200DE
:10161000F26AF16AF06AD09E9D6AA06AA36A9E6A25
:10162000A16AA46AD26AD16A0F01256BCF0E486FF6
:101630001E0E496FFF0E926EFF0E936EFF0E946E9C
:10164000FF0E956EFF0E966E959C939694929390D6
:0A165000F28EF28CF18E968C1200DF
:10165A00206A216A226A236AE6EC01F0030E516EBF
:10166A00526A0E0E536E44DC2EEC01F0CA90CA92F6
:10167A00CA80CA824A0ECB6E04DC36DC576A8BEC0F
:0A168A0005F0516A40EC07F0120071
:101694009B8C9C0E0C6ED70E0D6E0D2EFED70C2E51
:1016A400FCD7B4DF8B9233DDBB0EC16E2B6A000E08
:1016B40083BE010E2E6E2A6A246A256A266A276A68
:1016C400286A296AFA0E516E000E526E37DC12DD5A
:1016D400C2DF3A6A3B6A3C6A3D6A8CDF640E576E2D
:1016E400000E586EF0EC02F00D0E0B6E2D0E0C6E0B
:1016F400D70E0D6E0D2EFED70C2EFCD70B2EFAD75F
:1017040000000000640E576E000E586EF0EC02F0FC
:0A17140078DDDBDE0EDFFCD7FFD727
:020000040001F9
:08FFF800AAF7DDFFFFF8FFFB93
:00000001FF
