:04000000E3EF0AF030
:020006001200E6
:1000080000C018F001C017F002C016F003C015F0C8
:10001800A1A211D0E80E7B6E900E7A6EA192010E0D
:100028003026000E312232223322B1EC08F09AEC4D
:1000380008F08AEC08F018C000F017C001F016C0EC
:0800480002F015C003F01100E5
:0E005000C70E0D6E0D2EFED700000000120030
:10005E00560E0C6EB50E0D6E0D2EFED70C2EFCD759
:06006E000000000012007A
:0E007400030E0D6E0D2EFED7000000001200D0
:10008200000169BF02D0899001D0898069BD02D088
:10009200899201D0898269BB02D0899401D0898476
:1000A20069B902D0899601D089862AB002D08A8A9B
:1000B20001D08A9A8A88DDDF8A9869B702D089904E
:1000C20001D0898069B502D0899201D0898269B351
:1000D20002D0899401D0898469B102D0899601D075
:1000E20089862AB002D08A8A01D08A9A8A88C1DF98
:0E00F2008A982AA002D0B2DF01D0A9DF120046
:100100000B840BAE8BEF00F0010E036E026A016AE6
:0A011000006A0A360232FF0E1200E8
:08011A000AAE029E000E120065
:0C0122002A9068C069F0ACDF2A8012004F
:10012E00086A096A100E0C6E01340836093604503E
:10013E00085E0550D8A0053C095ED8B007D0045023
:10014E0008260550D8B0053C0926D8900036013651
:06015E000C2EEAD712008E
:0E016400026A016A006A086A036A000E12004D
:100172000B820BAEC3EF00F00368026801680068EF
:080182000A360232FF0E1200E2
:10018A0020C002F021C003F002C000F003C001F059
:02019A00120051
:10019C0000016251010A03E1800E626F14D06251BA
:1001AC00020A03E1C00E626F0ED06251030A03E132
:1001BC00940E626F08D06251040A03E1D40E626F90
:1001CC0002D0800E626F6305006E6251002600C083
:1001DC0062F000C069F04FDF2A90666B66516425AF
:1001EC00E96E000E6521EA6EEE50000A0BE06651D6
:1001FC006425E96E000E6521EA6EEECF68F08BDFA8
:08020C00662BECD72A801200DA
:1002140064C0E1FF65C0E2FF300EE66E300EE66EAC
:10022400300EE66E300EE66E300EE66EE66A040EB2
:1002340000016425666F000E6521676F000E631967
:1002440002E1000E621927E00A0E046E000E056E2C
:1002540062C000F063C001F068DF08C000F009C0AC
:1002640001F0300E002666C0E1FF67C0E2FF00C067
:10027400E6FF0A0E046E000E056E62C000F063C055
:1002840001F053DF00C062F001C063F0010E665F4D
:08029400000E675BD3D71200D6
:10029C0064C0E1FF65C0E2FF200EE66E200EE66E44
:1002AC00200EE66E200EE66E300EE66EE66A040E4A
:1002BC0000016425666F000E6521676F000E6319DF
:1002CC0002E1000E621927E00A0E046E000E056EA4
:1002DC0062C000F063C001F024DF08C000F009C068
:1002EC0001F0300E002666C0E1FF67C0E2FF00C0DF
:1002FC00E6FF0A0E046E000E056E62C000F063C0CD
:10030C0001F00FDF00C062F001C063F0010E665F08
:08031C00000E675BD3D712004D
:10032400220E0C6E086A096A0A6A0B6A0C06D8B4B3
:100334001FD0D8900B320A3209320832033202320B
:1003440001320032D8A0F2D70C06D8B409D0045038
:1003540008260550092206500A2207500B22EAD724
:10036400045008260550092206500A2207500B2281
:02037400120075
:0E037600550EA76EAA0EA76E0E01BF911200C3
:100384000CB004EF02F00CA2AAEF02F00E6A000E09
:1003940002641BEF02F0F00E0214D8A4E6EF01F0A1
:1003A400023A01380F0B02260138F00B016E0038B7
:1003B4000F0B01260038F00B006E08380F0B0026D7
:1003C4000838F00B086E0E84D89002BEFFEF01F0DF
:1003D40008360036013602360E2A02BEFFEF01F05F
:1003E40008360036013602360E2A02BEFFEF01F04F
:1003F40008360036013602360E2A0E500364A0EF8A
:1004040002F0035E0BBC08AEA5EF02F0D880800EAC
:1004140008640030000E002201220222D8A0A5EFB9
:1004240002F0023201320032034AAAEF02F0A5EFD1
:1004340002F001C002F000C001F008C000F0086A38
:10044400000E0E86026452EF02F0F00E0214D8A4DD
:100454003AEF02F0023A01380F0B02260138F00B92
:10046400016E00380F0B01260038F00B006E0E846D
:10047400D89002BEFFEF01F00036013602360E2A94
:1004840002BEFFEF01F00036013602360E2A02BE2C
:10049400FFEF01F00036013602360E2AFFEF01F0BD
:1004A40001C002F000C001F0006A000E0E960E8832
:1004B40002647FEF02F0F00E0214D8A46AEF02F097
:1004C400023A01380F0B02260138F00B016E0E843C
:1004D400D89002BEFFEF01F0013602360E2A02BEAA
:1004E400FFEF01F0013602360E2A02BEFFEF01F0E3
:1004F400013602360E2AFFEF01F001C002F0016A54
:10050400000E0E860264AFEF02F0F00E0214D8A4BF
:100514008EEF02F0023A0E84D89002BEFFEF01F093
:1005240002360E2A02BEFFEF01F002360E2A02BE88
:10053400FFEF01F002360E2AFFEF01F0010E0C6E00
:10054400DDDDB2EF02F0020E0C6EE5DDB2EF02F07B
:10055400040E0C6E0CDEB2EF02F0080E0C6E00DE20
:02056400120083
:080566000B6A0B86FF0E120068
:10056E000B6A0A6A096A00500402F4CF09F0F3CF4D
:10057E0008F001500502F4CF0BF0F3CF0AF0005053
:10058E000502F3500926F4500A22E86A0B220150A4
:10059E000402F3500926F4500A22E86A0B2208C01E
:1005AE0000F009C001F00AC002F00BC003F0120007
:1005BE000B800BAEEBEF02F0026A0AAEFF0E026E7C
:0C05CE00016E006E0A360232FF0E1200B1
:0E05DA00550EA76EAA0EA76E0E01BF8112006D
:0E05E800570E0D6E0D2EFED700000000120003
:1005F600C9DD00C062F001C063F0540E0001646FF3
:10060600000E656F04DE55C054F02E0E556E6D0E4D
:10061600586E6D0E596E5A6A020E626F010E636F46
:0C062600540E646F000E656FB6DD12000C
:100632000050086E0150006E0250016E0350026EAF
:10064200036A0B6A0C6A9E0E036E0A6A020E0C6E35
:0406520098DE12001C
:100656003BC001F03CC002F03DC003F03EC004F0D8
:100666003750015E3850025A3950035A3A50045AEC
:1006760001C054F002C055F003C056F004C057F054
:10068600800E0418006E800E005C08E1000E035C0C
:1006960005E1000E025C02E1000E015C14E2006A54
:1006A600016A026A036A5450005E5550015A565058
:1006B600025A5750035A00C054F001C055F002C008
:1006C60056F003C057F054C000F055C001F056C0B4
:1006D60002F057C003F0030E046E000E056E066EA0
:1006E600076E1DDE00C054F001C055F002C056F082
:1006F60003C057F054C062F055C063F0580E0001B5
:10070600646F000E656FC7DD200E5D6E520E5E6E65
:10071600500E5F6E4D0E606F020E626F080E636FB5
:10072600580E646F000E656F36DD37C03BF038C07B
:0C0736003CF039C03DF03AC03EF012002B
:100742000450000A12E10550000A0FE10650000AA7
:100752000CE10750000A09E1FF0E006EFF0E016E68
:100762007F0E026EFF0E036EA4D0086A096A07505C
:10077200D8B44CEF04F00350D8B450EF04F0025058
:1007820006180A6E028E068E0E6A02C008F001C0BA
:100792000CF000C00DF004500D5E0550D8A0053CD1
:1007A2000C5E0650D8A0063C085E086A0C6A0D6A08
:1007B200D8A0E3EF03F0D8900232013200320832BF
:1007C200010E0E6E0750035ED8A0F0EF03F07E0E0E
:1007D2000E240326D8B054EF04F0F6EF03F07E0E99
:1007E2000E240326D8A058EF04F0180E0B6E0D3617
:1007F2000C3608360036013602360E360450005EDC
:100802000550D8A0053C015E0650D8A0063C025E09
:1008120006340E120EA011EF04F00D801CEF04F04E
:10082200045000260550D8B0053C01260650D8B029
:10083200062802260D900B2EF8EF03F042EF04F08B
:10084200D8900036013602360E360450005E05504E
:10085200D8A0053C015E0650D8A0063C025E0634D4
:100862000E10010B0D26D8B00C2AD8B4082AD8A431
:1008720042EF04F008320C320D32032AD8B454EF9E
:1008820004F00AAE089E0850026E0C50016E0D5024
:10089200006E5AEF04F0010E65DE5AEF04F0020E0C
:1008A20060DC5AEF04F0040E63DC5AEF04F0080E29
:0408B20026DC12002E
:1008B600F29E37C054F038C055F039C056F03AC0F1
:1008C60057F05732563255325432579E57BC578ED0
:1008D600F28E54C062F055C063F0580E0001646F8A
:1008E600000E656F94DC5E6A5CC05DF02E0E5C6E79
:1008F600010E626F010E636F580E646F000E656F16
:100906004ADC8AA608D02D0E586E2D0E596E3E0E64
:100916005A6E5B6A07D03C0E586E2D0E596E2D0E20
:100926005A6E5B6A010E626F0E0E636F580E646F2D
:08093600000E656F30DC1200B9
:10093E0054501808FF0ED8B0000E026E54500D0819
:10094E00FF0ED8B0000E016E110E545CFF0ED8B023
:10095E00000E006E0150001602500012D8A4586A04
:10096E005550000AD8A48CD05750010A01E1FCDC86
:10097E005450000A03E156C0C0FE7ED05450010A06
:10098E0003E156C0C1FE78D05450020A03E156C0AE
:10099E00C2FE72D05450030A03E156C0C3FE6CD09F
:1009AE005450040A03E156C0C4FE66D05450050AE2
:1009BE0003E156C0C5FE60D05450060A03E156C08E
:1009CE00C6FE5AD05450070A03E156C0C7FE54D093
:1009DE005450080A03E156C0C8FE4ED05450090ABE
:1009EE0003E156C0C9FE48D054500A0A03E156C06E
:1009FE00CAFE42D054500B0A03E156C0CBFE3CD087
:100A0E0054500C0A03E156C0CCFE36D054500D0A99
:100A1E0003E156C0CDFE30D05450110A03E156C04A
:100A2E00D1FE2AD05450120A03E156C0D2FE24D071
:100A3E005450130A03E156C0D3FE1ED05450140A6C
:100A4E0003E156C0D4FE18D05450150A03E156C027
:100A5E00D5FE12D05450160A03E156C0D6FE0CD065
:100A6E005450170A03E156C0D7FE06D05450180A48
:100A7E0003E156C0D8FE00D05750010A01E1A6DDB1
:100A8E005550010AD8A474D05750010A01E16CDC0C
:100A9E005650000A03E154C0E1FE66D05650010ADA
:100AAE0003E154C0E2FE60D05650020A03E154C086
:100ABE00E3FE5AD05650030A03E154C0E4FE54D06C
:100ACE005650040A03E154C0E6FE4ED05650050AB5
:100ADE0003E154C0E7FE48D05650060A03E154C065
:100AEE00E8FE42D05650070A03E154C0E9FE3CD05E
:100AFE005650080A03E154C0EAFE36D05650090A91
:100B0E0003E154C0F2FE30D056500A0A03E154C03D
:100B1E00F3FE2AD056500B0A03E154C0F4FE24D043
:100B2E0056500C0A03E154C0F7FE1ED056500D0A63
:100B3E0003E154C0F8FE18D056500E0A03E154C01B
:100B4E00FCFE12D056500F0A03E154C0FDFE0CD02D
:100B5E005650100A03E154C0FEFE06D05650110A3C
:100B6E0003E154C0FFFE00D05750010A01E12EDD13
:100B7E005450000A06E155B002D0929001D09280F6
:100B8E00BDD05450010A06E155B002D0929201D068
:100B9E009282B4D05450020A06E155B002D0929A15
:100BAE0001D0928AABD05450030A06E155B002D060
:100BBE00939001D09380A2D05450040A06E155B010
:100BCE0002D0939201D0938299D05450050A06E137
:100BDE0055B002D0939401D0938490D05450060A0D
:100BEE0006E155B002D0939601D0938687D054502B
:100BFE00070A06E155B002D0939801D093887ED0B3
:100C0E005450080A06E155B002D0939A01D0938A47
:100C1E0075D05450090A06E155B002D0939C01D00C
:100C2E00938C6CD054500A0A06E155B002D0939EB4
:100C3E0001D0938E63D054500B0A06E155B002D00A
:100C4E00949001D094805AD054500C0A06E155B0BD
:100C5E0002D0949201D0948251D054500D0A06E1E4
:100C6E0055B002D0949401D0948448D05450110AB7
:100C7E0006E155B002D0949C01D0948C3FD05450D4
:100C8E00120A06E155B002D0949E01D0948E36D051
:100C9E005450130A06E155B002D0959401D09584B4
:100CAE002DD05450140A06E155B002D0959601D0BD
:100CBE00958624D05450150A06E155B002D0959869
:100CCE0001D095881BD05450160A06E155B002D0BB
:100CDE00959A01D0958A12D05450170A06E155B054
:100CEE0002D0959C01D0958C09D05450180A06E17B
:100CFE0055B002D0959E01D0958E00D058C000F010
:020D0E001200D1
:100D1000010E006E000E016ECB500026D8B0012AE5
:100D200054C004F0000E056E22DC060E026E00C0F8
:100D300004F001C005F0025005E005320432059EC2
:100D4000FF0FFAD7040E016E04C000F0015004E05A
:100D500000360090FF0FFBD7300E0014036E04C066
:100D600000F005C001F001320032019E0132003274
:100D7000019E00C0BBFF0F0EBA160350BA1212003C
:100D80000B6A0C6A0A6A0350D8B40AEF07F0028EA5
:100D90008E0E035E03BED2EF06F0D8B4D2EF06F09B
:100DA0000EEF07F0036C080E035CD8A0E9EF06F025
:100DB000036E013602C001F0026A080E035CD8A07F
:100DC000E9EF06F00136016A0350D8A4D890F3EF9A
:100DD00006F00350D8B4F3EF06F0D8900232013297
:100DE000032EEDEF06F00BBC01A000EF07F0D8A03A
:100DF00000EF07F0012AD8B4022A02BE1DEF07F067
:100E00000AAE23EF07F0021E011E012AD8B4022AFF
:100E100023EF07F0026A016A23EF07F00B800BAEA5
:100E200027EF07F0026A0AAE27EF07F0FF0E026E07
:100E3000016E0A36023227EF07F0010E0C6EDFEC6E
:100E400002F029EF07F0000E0C6E29EF07F0FF0EFD
:0C0E50000C6E0150006E0250016E12008A
:100E5C004E5030242C6E4F5031202D6E000E32200F
:0C0E6C002E6E000E33202F6E8B821200C1
:080E7800CA840C0EBA1212002C
:0C0E80004EC022F04EC054F043DF1200C0
:100E8C004EC054F04FC055F050C056F0576A51DD6B
:0A0E9C0000C051F051C000F0120038
:100EA6004F50050802E14E50DC0804E2DC0E4E6E9F
:100EB600050E4F6E4EC020F04FC021F0FA0E006EA8
:100EC600000E016E000E026E000E036E4EC004F0A0
:100ED6004FC005F0000E066E076E92EC01F019EC9D
:100EE60003F0000E046E000E056E160E066E830EDF
:100EF600076E24DC42DF00C019F001C01AF01200B0
:080F0600BB6ABA98BA9A120006
:100F0E004F50535C02E14E50525C02E2016A0AD02D
:100F1E0051504F5C02E150504E5C02E2016A02D029
:0A0F2E00FF0E016E01C000F012007A
:100F380003EC00F0BCDCFBEC02F02BEC03F0C80E79
:100F48003024436E000E3120446E000E3220456E70
:100F5800000E3320466ED00E30243F6E070E31202F
:100F6800406E000E3220416E000E3320426E120099
:100F7800C30EC216030EC112C19C180EC112C18E37
:100F88004EC000F000360090003600900050C212AB
:100F9800C280F4EC02F0C282C2A202D00000FCD7E8
:100FA800C290C4CF01F0006AC35000104F6E01C058
:100FB80050F0000E50124FC000F050C001F0120067
:100FC8009398939A92969294929292908A988A9AE7
:100FD80089908992899489962FEC00F02FEC00F083
:100FE8002FEC00F0898489868A883AEC00F08A9888
:100FF8002FEC00F08A883AEC00F08A982FEC00F089
:101008008A883AEC00F08A982FEC00F089968A8852
:101018003AEC00F08A982FEC00F08A883AEC00F05D
:101028008A98899489808A883AEC00F08A982FEC0B
:1010380000F0899089868A883AEC00F08A98899627
:101048008A883AEC00F08A982FEC00F08A883AEC0B
:1010580000F08A9889868A883AEC00F08A982FEC02
:1010680000F089968A883AEC00F08A98898089820B
:10107800898489868A883AEC00F08A982FEC00F0F7
:041088002A801200A8
:10108C00F26AF16AF06AD09E9D6AA06AA36A9E6AAF
:10109C00A16AA46AD26AD16A0F01256BDF0E486F70
:1010AC001E0E496FFF0E926EFF0E936EFF0E946E26
:1010BC00FF0E956EFF0E966E959C93969492939060
:0A10CC00F28EF28CF18E968C120069
:1010D600FF0E266EFF0E276EFF0E286EFF0E296E80
:1010E600C30EC216030EC112C19C180EC112C18EC8
:0410F600C2801200A2
:1010FA00796AE80E7B6E900E7A6EA182A082306ABF
:0A110A00316A326A336A79801200FC
:101114008BA20DD02F50335C08E12E50325C05E1D8
:101124002D50315C02E12C50305CD8B08B9212000F
:101134008CAC04D08C9C010E356E10D03550000A56
:101144000CE1000E255C02E1FA0E245C05E38C8CB4
:0E115400FA0E245E000E255A01D03506120058
:10116200016A83BE012A01502B1827E0026A83BE5E
:10117200022A016A81B2012A02500118000ED8A483
:10118200FF0E006E00C003F0005207E0010E37268A
:10119200000E382239223A2206D0010E375E000EA6
:1011A200385A395A3A5A34500318D8A48A7603C0A6
:1011B20034F0195024261A502522000E83BE010E47
:0411C2002B6E12007E
:1011C60000DF010E0001696F41EC00F00C0E696F43
:0811D60041EC00F0AEDE120056
:1011DE00475030242C6E485031202D6E000E322098
:0C11EE002E6E000E33202F6E8B8212003C
:1011FA00080E4E6EBCDE00C047F001C048F04B6AD4
:10120A0000C04EF001C04FF0506A516A2A0E526E69
:10121A00010E536E77DE0052D8A44B8847C04EF0B9
:10122A0048C04FF0430E506E010E516E1A0E526EA8
:10123A00030E536E67DE0052D8A44B8447C04EF0AB
:10124A0048C04FF0E10E506E030E516E340E526ECE
:10125A00060E536E57DE0052D8A44B8647C04EF096
:10126A0048C04FF0660E506E060E516E040E526E56
:10127A00090E536E47DE0052D8A44B8247C04EF087
:10128A0048C04FF0AA0E506E0A0E516E370E526EBB
:10129A000C0E536E37DE0052D8A44B8082BC02D0AB
:1012AA004B9A01D04B8A82BE02D04B9C01D04B8C08
:1012BA0083B602D04B9E01D04B8E36504B18496EE6
:1012CA004A6A000E4A1A000E4A6E000E006E4A5012
:1012DA00005C02E14950000855E21F6A1FC002F093
:1012EA00010E006E000E016E025005E000360090FD
:1012FA000136FF0FFAD700504914026E4A50011402
:10130A00036E016A000E031802E1000E021802E0E1
:10131A00010E016E0150010AFF0ED8A4000E036EE1
:10132A001FC001F0010E006E015004E0003600906B
:10133A00FF0FFBD700504B14026E016A0250000ADD
:10134A0002E0010E016E0150000AFF0ED8A4000E41
:10135A00006E0350001611E01FC001F0010E006E6E
:10136A00015004E000360090FF0FFBD70050231213
:10137A00050E4E6E000E4F6E6CDD1F50070A02E01E
:10138A001F2AACD74BC036F023500008D8B08AD0F9
:10139A001F6A1FC001F0010E006E015004E0003602
:1013AA000090FF0FFBD700502314026E016A02500F
:1013BA00000A02E0010E016E0150010AD8A46DD0A4
:1013CA001F50000A01E15CD01F50010A06E18A960B
:1013DA00900E2426D00E252253D01F50040A06E16F
:1013EA008A86900E2426D00E25224AD01F50020A41
:1013FA0015E1C5EC00F000C04CF001C04DF00A0E3A
:10140A000026000E012200C04CF001C04DF000C0C1
:10141A004EF001C04FF042DD8ADD32D01F50030A80
:10142A001FE1C5EC00F000C04CF001C04DF0000E09
:10143A00026E0150025C02E100500A080FE20A0E35
:10144A004C5C006E000E4D58016E00C04CF001C09D
:10145A004DF000C04EF001C04FF020DD68DD10D025
:10146A001F50050A03E14E6A06DD0AD01F50060A1C
:10147A0002E18A7605D01F50070A02E18A7600D077
:10148A001FC001F0010E006E015004E0003600900A
:10149A00FF0FFBD7001E005023161F50070A02E059
:0614AA001F2A77D7120093
:1014B0001B6A1C6A1D6A1E6ABBEC01F0030E4E6EAD
:1014C0004F6A0E0E506EE2DCEDEC02F0CA90CA924A
:1014D000CA80CA824A0ECB6E16DDCEDC500E4E6E2E
:0414E000CFDC12004B
:1014E40033501E5C08E132501D5C05E131501C5C38
:1014F40002E130501B5C2FE2140E30241B6E000EF0
:1015040031201C6E000E32201D6E000E33201E6E24
:10151400F29E050E4E6E2EDD00C047F001C048F06D
:10152400050E4E6E27DD00C047F001C048F0F28E74
:1015340000C047F001C048F048324732489E483264
:101544004732489E48324732489E48324732489E86
:0815540047C04EF093DC1200C9
:10155C003350465C08E13250455C05E13150445C47
:10156C0002E13050435C0EE2320E3024436E000E2A
:10157C003120446E000E3220456E000E3320466E34
:10158C005BEC04F03350425C08E13250415C05E105
:10159C003150405C02E130503F5C0EE2D00E302402
:1015AC003F6E070E3120406E000E3220416E000E51
:0A15BC003320426E2BEC03F0120006
:1015C6009B8C9C0E0C6ED70E0D6E0D2EFED70C2E20
:1015D600FCD759DD8B927CDD366A000E83BE010E88
:1015E6002B6E236A376A386A396A3A6A246A256A28
:1015F600200E4E6E030E4F6E53DC7CDD56DFE0DDB3
:10160600640E476E000E486EE7DD0D0E0B6E2D0E56
:101616000C6ED70E0D6E0D2EFED70C2EFCD70B2E94
:10162600FAD700000000640E476E000E486ED4DD47
:0A163600E1DD91DF54DFFCD7FFD7A0
:020000040001F9
:08FFF800AAF7DDFFFFF8FFFB93
:00000001FF
