:04000000F9EF07F01D
:020006001200E6
:1000080000C01BF001C01AF002C019F003C018F0BC
:1000180004C017F005C016F006C015F09EA0A3D0C6
:10002800010E2026000E2122222223229E90F60E67
:10003800CF6EA00ECE6E016A82B0012A015024183C
:1000480027E0026A82B0022A016A82B2012A0250BB
:100058000118000ED8A4FF0E006E00C006F0005272
:1000680007E0010E2F26000E30223122322206D060
:10007800010E2F5E000E305A315A325A3A50061885
:10008800D8A48B7406C03AF040503D2641503E2219
:10009800000E82B0010E246E33508318016E01C029
:1000A80005F00150000847E2046A04C001F0010E9F
:1000B800006E015004E000360090FF0FFBD700509F
:1000C8000514026E016A0250000A02E0010E016E78
:1000D8000150010AFF0ED8A4000E036E04C001F0FF
:1000E800010E006E015004E000360090FF0FFBD7B0
:1000F80000508314026E016A0250000A02E0010EE9
:10010800016E0150000AFF0ED8A4000E006E0350C5
:1001180000160CE004C001F0010E006E015004E06E
:1001280000360090FF0FFBD700502A120450070A30
:1001380002E0042ABAD783CF33F08BAC04D08B9C6F
:10014800040E396E10D03950000A0CE1070E3E5CDF
:1001580002E1D00E3D5C05E38B8CD00E3D5E070EB0
:100168003E5A01D039061BC000F01AC001F019C070
:1001780002F018C003F017C004F016C005F015C04F
:0401880006F011006C
:0E018C00030E0D6E0D2EFED7000000001200B7
:10019A00560E0C6EB50E0D6E0D2EFED70C2EFCD71C
:0601AA000000000012003D
:0E01B000C70E0D6E0D2EFED7000000001200CF
:1001BE005FBE02D08A9601D08A865FBC02D08A9436
:1001CE0001D08A845FBA02D08A9201D08A825FB847
:1001DE0002D08A9001D08A8034B002D08A8801D0B1
:1001EE008A988A8ACCDF8A9A5FB602D08A9601D024
:1001FE008A865FB402D08A9401D08A845FB202D01C
:10020E008A9201D08A825FB002D08A9001D08A8011
:10021E0034B002D08A8801D08A988A8AB0DF8A9A4E
:0C022E0034A002D0B3DF01D0BCDF12000E
:08023A000AAE029E000E120044
:100242000B820BAE2BEF01F00368026801680068B5
:080252000A360232FF0E120011
:0E025A00026A016A006A086A036A000E120056
:0C02680034905EC05FF0A7DF348012000D
:100274000B840BAE45EF01F0010E036E026A016AB6
:0A028400006A0A360232FF0E120073
:10028E00086A096A100E0C6E0134083609360450DD
:10029E00085E0550D8A0053C095ED8B007D00450C2
:1002AE0008260550D8B0053C0926D89000360136F0
:0602BE000C2EEAD712002D
:1002C4005AC0E1FF5BC0E2FF200EE66E200EE66E30
:1002D400200EE66E200EE66E300EE66EE66A040E22
:1002E4005A245C6E000E5B205D6E000E591802E10C
:1002F400000E581827E00A0E046E000E056E58C052
:1003040000F059C001F0C1DF08C000F009C001F0DD
:10031400300E00265CC0E1FF5DC0E2FF00C0E6FFD6
:100324000A0E046E000E056E58C000F059C001F0AC
:10033400ACDF00C058F001C059F0010E5C5E000E45
:060344005D5AD3D7120040
:10034A005AC0E1FF5BC0E2FF300EE66E300EE66E89
:10035A00300EE66E300EE66E300EE66EE66A040E7B
:10036A005A245C6E000E5B205D6E000E591802E185
:10037A00000E581827E00A0E046E000E056E58C0CB
:10038A0000F059C001F07EDF08C000F009C001F09A
:10039A00300E00265CC0E1FF5DC0E2FF00C0E6FF50
:1003AA000A0E046E000E056E58C000F059C001F026
:1003BA0069DF00C058F001C059F0010E5C5E000E02
:0603CA005D5AD3D71200BA
:1003D0005850010A03E1800E586E14D05850020A9A
:1003E00003E1C00E586E0ED05850030A03E1940E7C
:1003F000586E08D05850040A03E1D40E586E02D04B
:10040000800E586E5904006E5850002600C058F0F7
:1004100000C05FF0D4DE34905C6A5C505A24E96E10
:10042000000E5B20EA6EEE50000A0BE05C505A248E
:10043000E96E000E5B20EA6EEECF5EF015DF5C2AFF
:06044000ECD7348012002D
:10044600220E0C6E086A096A0A6A0B6A0C06D8B490
:100456001FD0D8900B320A320932083203320232E8
:1004660001320032D8A0F2D70C06D8B409D0045015
:1004760008260550092206500A2207500B22EAD701
:10048600045008260550092206500A2207500B225E
:02049600120052
:100498003BC002F03CC003F002C000F003C001F012
:0204A800120040
:1004AA000CB097EF02F00CA23DEF03F00E6A000EBB
:1004BA000264AEEF02F0F00E0214D8A479EF02F053
:1004CA00023A01380F0B02260138F00B016E003890
:1004DA000F0B01260038F00B006E08380F0B0026B0
:1004EA000838F00B086E0E84D89002BE92EF02F024
:1004FA0008360036013602360E2A02BE92EF02F0A4
:10050A0008360036013602360E2A02BE92EF02F093
:10051A0008360036013602360E2A0E50036433EFCF
:10052A0003F0035E0BBC08AE38EF03F0D880800EF0
:10053A0008640030000E002201220222D8A038EFFF
:10054A0003F0023201320032034A3DEF03F038EF82
:10055A0003F001C002F000C001F008C000F0086A10
:10056A00000E0E860264E5EF02F0F00E0214D8A423
:10057A00CDEF02F0023A01380F0B02260138F00BD8
:10058A00016E00380F0B01260038F00B006E0E8446
:10059A00D89002BE92EF02F00036013602360E2AD9
:1005AA0002BE92EF02F00036013602360E2A02BE71
:1005BA0092EF02F00036013602360E2A92EF02F06E
:1005CA0001C002F000C001F0006A000E0E960E880B
:1005DA00026412EF03F0F00E0214D8A4FDEF02F049
:1005EA00023A01380F0B02260138F00B016E0E8415
:1005FA00D89002BE92EF02F0013602360E2A02BEEF
:10060A0092EF02F0013602360E2A02BE92EF02F093
:10061A00013602360E2A92EF02F001C002F0016A98
:10062A00000E0E86026442EF03F0F00E0214D8A404
:10063A0021EF03F0023A0E84D89002BE92EF02F044
:10064A0002360E2A02BE92EF02F002360E2A02BECD
:10065A0092EF02F002360E2A92EF02F0010E0C6EB1
:10066A0004DE45EF03F0020E0C6EE2DD45EF03F007
:10067A00040E0C6EE1DD45EF03F0080E0C6EE8DDAA
:02068A0012005C
:10068C000B6A0A6A096A00500402F4CF09F0F3CF2E
:10069C0008F001500502F4CF0BF0F3CF0AF0005034
:1006AC000502F3500926F4500A22E86A0B22015085
:1006BC000402F3500926F4500A22E86A0B2208C0FF
:1006CC0000F009C001F00AC002F00BC003F01200E8
:0806DC000B6A0B86FF0E1200F1
:1006E4000B800BAE7EEF03F0026A0AAEFF0E026EC1
:0C06F400016E006E0A360232FF0E12008A
:100700000B6A0C6A0A6A0350D8B4CAEF03F0028E6F
:100710008E0E035E03BE92EF03F0D8B492EF03F0A7
:10072000CEEF03F0036C080E035CD8A0A9EF03F032
:10073000036E013602C001F0026A080E035CD8A005
:10074000A9EF03F00136016A0350D8A4D890B3EFA3
:1007500003F00350D8B4B3EF03F0D8900232013263
:10076000032EADEF03F00BBC01A0C0EF03F0D8A047
:10077000C0EF03F0012AD8B4022A02BEDDEF03F075
:100780000AAEE2EF03F0021E011E012AD8B4022ACB
:10079000E2EF03F0026A016AE2EF03F00B800BAEB6
:1007A000E6EF03F0026A0AAEE6EF03F0FF0E026E18
:1007B000016E0A360232E6EF03F0010E0C6E92DF94
:1007C000E8EF03F0000E0C6EE8EF03F0FF0E0C6E86
:0A07D0000150006E0250016E12008D
:1007DA0025C001F026C002F027C003F028C004F0AB
:1007EA002F50015E3050025A3150035A3250045A87
:1007FA0001C04AF002C04BF003C04CF004C04DF0F7
:10080A00800E0418006E800E005C08E1000E035C86
:10081A0005E1000E025C02E1000E015C14E2006ACE
:10082A00016A026A036A4A50005E4B50015A4C50F0
:10083A00025A4D50035A00C04AF001C04BF002C0A0
:10084A004CF003C04DF04AC000F04BC001F04CC060
:10085A0002F04DC003F0030E046E000E056E066E24
:10086A00076EECDD00C04AF001C04BF002C04CF04C
:10087A0003C04DF04AC058F04BC059F04E0E5A6EA4
:10088A00000E5B6E1ADD200E536E520E546E500E21
:10089A00556E4D0E566E020E586E080E596E4E0E5D
:1008AA005A6E000E5B6E8FDD2FC025F030C026F029
:0A08BA0031C027F032C028F0120010
:1008C4000450000A12E10550000A0FE10650000A24
:1008D4000CE10750000A09E1FF0E006EFF0E016EE5
:1008E4007F0E026EFF0E036EA4D0086A096A0750D9
:1008F400D8B40DEF05F00350D8B411EF05F0025051
:1009040006180A6E028E068E0E6A02C008F001C036
:100914000CF000C00DF004500D5E0550D8A0053C4D
:100924000C5E0650D8A0063C085E086A0C6A0D6A84
:10093400D8A0A4EF04F0D890023201320032083279
:10094400010E0E6E0750035ED8A0B1EF04F07E0EC8
:100954000E240326D8B015EF05F0B7EF04F07E0E91
:100964000E240326D8A019EF05F0180E0B6E0D36D1
:100974000C3608360036013602360E360450005E58
:100984000550D8A0053C015E0650D8A0063C025E86
:1009940006340E120EA0D2EF04F00D80DDEF04F049
:1009A400045000260550D8B0053C01260650D8B0A6
:1009B400062802260D900B2EB9EF04F003EF05F084
:1009C400D8900036013602360E360450005E0550CB
:1009D400D8A0053C015E0650D8A0063C025E063451
:1009E4000E10010B0D26D8B00C2AD8B4082AD8A4AE
:1009F40003EF05F008320C320D32032AD8B415EF98
:100A040005F00AAE089E0850026E0C50016E0D509F
:100A1400006E1BEF05F0010E5FDE1BEF05F0020E0A
:100A24001ADC1BEF05F0040E0ADC1BEF05F0080EC0
:040A34001FDC1200B1
:0E0A3800570E0D6E0D2EFED7000000001200AE
:100A4600010E006E000E016EBB500026D8B0012AC2
:100A56004AC004F0000E056E16DE060E026E00C0D9
:100A660004F001C005F0025005E005320432059E8F
:100A7600FF0FFAD7040E016E04C000F0015004E027
:100A860000360090FF0FFBD7300E0014036E04C033
:100A960000F005C001F001320032019E0132003241
:100AA600019E00C055FF0F0E0F015417035054133B
:020AB60012002C
:100AB800F29E2FC04AF030C04BF031C04CF032C02B
:100AC8004DF04D324C324B324A324D9E4DBC4D8E1C
:100AD800F28E4AC058F04BC059F04E0E5A6E000EB6
:100AE8005B6E2FDC546A52C053F02E0E526E010E0C
:100AF800586E010E596E4E0E5A6E000E5B6E64DC17
:100B08008BA408D02D0E4E6E2D0E4F6E3E0E506EDD
:100B1800516A07D03C0E4E6E2D0E4F6E2D0E506E44
:100B2800516A010E586E0E0E596E4E0E5A6E000E18
:060B38005B6E4ADC1200B6
:100B3E000050086E0150006E0250016E0350026E9E
:100B4E00036A0B6A0C6A9E0E036E0A6A020E0C6E24
:040B5E00A5DC120000
:100B62009ADC00C058F001C059F04A0E5A6E000ECD
:100B72005B6EA5EC01F04BC04AF02E0E4B6E6D0E73
:100B82004E6E6D0E4F6E506A020E586E010E596E09
:0C0B92004A0E5A6E000E5B6E1ADC120058
:0A0B9E000F01556B5499549B12008F
:100BA80003EC00F085DFD9DF14DEF40E20242B6E71
:100BB800010E21202C6E000E22202D6E000E232007
:100BC8002E6E880E20241C6E130E21201D6E000E22
:0C0BD80022201E6E000E23201F6E120053
:100BE400939A939893909392939493968A9A8A98CB
:100BF4008A968A948A928A90CDEC00F0CDEC00F02B
:100C0400CDEC00F08A828A808A8AC6EC00F08A9A47
:100C1400CDEC00F08A8AC6EC00F08A9ACDEC00F0A4
:100C24008A8AC6EC00F08A9ACDEC00F08A908A8A0F
:100C3400C6EC00F08A9ACDEC00F08A8AC6EC00F08B
:100C44008A9A8A928A868A8AC6EC00F08A9ACDECBD
:100C540000F08A968A808A8AC6EC00F08A9A8A9082
:100C64008A8AC6EC00F08A9ACDEC00F08A8AC6EC37
:100C740000F08A9A8A808A8AC6EC00F08A9ACDECBF
:100C840000F08A908A8AC6EC00F08A9A8A868A845E
:100C94008A828A808A8AC6EC00F08A9ACDEC00F0B7
:040CA4003480120086
:0C0CA8009694BA840C0E0F015413120035
:100CB4004750050802E14650DC0804E2DC0E466EAB
:100CC400050E476E46C03BF047C03CF0D00E006EA8
:100CD400070E016E000E026E000E036E46C004F095
:100CE40047C005F0000E066E076E23EC02F025DF08
:100CF400000E046E000E056E160E066E860E076E4E
:0E0D0400DFDDFCDC00C040F001C041F0120059
:100D1200C26A070EC012C08E46C000F000360090B4
:100D2200003600900050C212C28085DEC282C2A28A
:100D320002D00000FCD7C4CF01F0006A00C047F027
:100D420001C048F0C3504712000E4812C29047C07B
:080D520000F048C001F012009E
:0C0D5A0046C03FF046C04AF071DE1200B7
:0A0D66003FC001F001C000F01200D0
:100D7000BA90BA92BA80BA824A0EBB6E10DF94DF84
:020D800012005F
:100D82000F01386B396B3A6B3B6B796A786AFF0EED
:100D9200946E9494949C936AFF0E956E92988B94A1
:040DA2008B9C120014
:100DA600206A216A226A236A010ECD6E9E90F60E93
:0E0DB600CF6EA00ECE6E9D80C00EF26E1200AB
:100DC4000FDF010E5F6EDFEC00F00C0E5F6EDFECE8
:060DD40000F0E8DE120051
:100DDA002A500008D8B085D0296A29C001F0010E2E
:100DEA00006E015004E000360090FF0FFBD7005060
:100DFA002A14026E016A0250000A02E0010E016E14
:100E0A000150010AD8A468D02950000A02E18B7463
:100E1A0056D02950010A01E152D02950020A15E19F
:100E2A004CEC02F000C042F001C043F00A0E00266A
:100E3A00000E012200C042F001C043F000C046F09B
:100E4A0001C047F032DFABDE3AD02950030A1FE176
:100E5A004CEC02F000C042F001C043F0000E026EFA
:100E6A000150025C02E100500A080FE20A0E425CDD
:100E7A00006E000E4358016E00C042F001C043F0FC
:100E8A0000C046F001C047F010DF89DE18D02950B3
:100E9A00040A02E163DF13D02950050A06E12F6A2A
:100EAA00306A316A326A7BDE0AD02950060A02E1C8
:100EBA008B7405D02950070A02E18B7400D029C02F
:100ECA0001F0010E006E015004E000360090FF0FA1
:100EDA00FBD7001E00502A162950070A02E0292AC9
:040EEA007CD712009F
:100EEE0023502E5C08E122502D5C05E121502C5C34
:100EFE0002E120502B5C4EE2F40E20242B6E010EEC
:100F0E0021202C6E000E22202D6E000E23202E6E20
:100F1E00CCDD466AF7DE00C042F001C043F0466AFF
:100F2E00F1DE00C042F001C043F0466AEBDE00C0C5
:100F3E0042F001C043F0466AE5DE00C042F001C057
:100F4E0043F0426A436A456A466ADCDE0050422636
:100F5E000150432245500F0A02E0452AF5D7060EEE
:100F6E00006E42C001F043C002F0005005E00232B4
:100F7E000132029EFF0FFAD701C044F00A0E015C47
:100F8E00D8A0446A4450F50802E2FF0E446E44C0F5
:100F9E0046F0DCDE23501F5C08E122501E5C05E1AA
:100FAE0021501D5C02E120501C5C0DE2880E2024B5
:100FBE001C6E130E21201D6E000E22201E6E000EC2
:080FCE0023201F6E03DC12005A
:100FD600FF0E356EFF0E366EFF0E376EFF0E386E45
:0C0FE600C26A070EC012C08EC28012004A
:100FF200C7DE2F6A306A316A326A000E82B0010E91
:10100200246E83CF33F02A6AE80E466E030E476ED3
:1010120050DE3D6A3E6AC6DEAADE640E466E9CDE85
:0C102200D9DFCFDED9DE62DFFDD7FFD7BB
:020000040030CA
:0D000100331F3CFFBD81FF0FC00FE00F401B
:00000001FF
