:0400000044EF06F0D3
:020006001200E6
:1000080000C018F001C017F002C016F00DC015F0BE
:10001800A1A25DD0010E2226000E23222422252231
:10002800A192D00E7B6E2A0E7A6E016A83BE012AD7
:1000380001503C1827E0026A83BE022A016A81B295
:10004800012A02500118000ED8A4FF0E006E00C04D
:1000580055F0005207E0010E1E26000E1F22202236
:10006800212206D0010E1E5E000E1F5A205A215A68
:1000780027505518D8A48A7655C027F0305038260E
:1000880031503922000E83BE010E3C6E080E566EAA
:10009800C4EC05F000C01EF001C01FF0000E206E79
:1000A800216E8CAC04D08C9C040E266E10D0265089
:1000B800000A0CE1070E395C02E1D00E385C05E35A
:1000C8008C8CD00E385E070E395A01D0260618C01F
:1000D80000F017C001F016C002F015C00DF01100B5
:1000E800560E0C6EB50E0D6E0D2EFED70C2EFCD7CF
:0600F800000000001200F0
:0E00FE00C70E0D6E0D2EFED700000000120082
:0E010C00030E0D6E0D2EFED700000000120037
:10011A0054BE02D0899001D0898054BC02D0899201
:10012A0001D0898254BA02D0899401D0898454B802
:10013A0002D0899601D089863AB002D08A8A01D043
:10014A008A9A8A88DEDF8A9854B602D0899001D0CA
:10015A00898054B402D0899201D0898254B202D0E3
:10016A00899401D0898454B002D0899601D08986B5
:10017A003AB002D08A8A01D08A9A8A88C2DF8A98DB
:0C018A003AA002D0ACDF01D0B5DF1200BB
:0C0196003A9053C054F0BEDF3A801200D3
:1001A200086A096A100E0C6E0134083609360450CA
:1001B200085E0550D8A0053C095ED8B007D00450AF
:1001C20008260550D8B0053C0926D89000360136DD
:0601D2000C2EEAD712001A
:1001D8000B820BAEF6EF00F0036802680168006856
:0801E8000A360232FF0E12007C
:0E01F000026A016A006A086A036A000E1200C1
:0801FE000AAE029E000E120081
:100206004FC0E1FF50C0E2FF300EE66E300EE66EE4
:10021600300EE66E300EE66E300EE66EE66A040EC0
:100226004F24516E000E5020526E000E4E1802E101
:10023600000E4D1827E00A0E046E000E056E4DC026
:1002460000F04EC001F0AADF08C000F009C001F0BE
:10025600300E002651C0E1FF52C0E2FF00C0E6FFAB
:100266000A0E046E000E056E4DC000F04EC001F081
:1002760095DF00C04DF001C04EF0010E515E000E3C
:06028600525AD3D712000A
:10028C000B840BAE51EF01F0010E036E026A016A92
:0A029C00006A0A360232FF0E12005B
:1002A6004D50010A03E1800E4D6E14D04D50020AE6
:1002B60003E1C00E4D6E0ED04D50030A03E1940EBD
:1002C6004D6E08D04D50040A03E1D40E4D6E02D097
:1002D600800E4D6E4E04006E4D50002600C04DF04F
:1002E60000C054F017DF3A90516A51504F24E96E1E
:1002F600000E5020EA6EEE50000A0BE051504F24DB
:10030600E96E000E5020EA6EEECF53F041DF512A1F
:06031600ECD73A80120052
:10031C004FC0E1FF50C0E2FF200EE66E200EE66EED
:10032C00200EE66E200EE66E300EE66EE66A040EC9
:10033C004F24516E000E5020526E000E4E1802E1EA
:10034C00000E4D1827E00A0E046E000E056E4DC00F
:10035C0000F04EC001F01FDF08C000F009C001F032
:10036C00300E002651C0E1FF52C0E2FF00C0E6FF94
:10037C000A0E046E000E056E4DC000F04EC001F06A
:10038C000ADF00C04DF001C04EF0010E515E000EB0
:06039C00525AD3D71200F3
:1003A20036C002F037C003F002C000F003C001F013
:0203B200120037
:1003B400220E0C6E086A096A0A6A0B6A0C06D8B423
:1003C4001FD0D8900B320A3209320832033202327B
:1003D40001320032D8A0F2D70C06D8B409D00450A8
:1003E40008260550092206500A2207500B22EAD794
:1003F400045008260550092206500A2207500B22F1
:020404001200E4
:100406000CB045EF02F00CA2EBEF02F00E6A000E04
:1004160002645CEF02F0F00E0214D8A427EF02F09B
:10042600023A01380F0B02260138F00B016E003834
:100436000F0B01260038F00B006E08380F0B002654
:100446000838F00B086E0E84D89002BE40EF02F01A
:1004560008360036013602360E2A02BE40EF02F09A
:1004660008360036013602360E2A02BE40EF02F08A
:1004760008360036013602360E2A0E500364E1EFC6
:1004860002F0035E0BBC08AEE6EF02F0D880800EE9
:1004960008640030000E002201220222D8A0E6EFF6
:1004A60002F0023201320032034AEBEF02F0E6EFCD
:1004B60002F001C002F000C001F008C000F0086AB6
:1004C600000E0E86026493EF02F0F00E0214D8A41A
:1004D6007BEF02F0023A01380F0B02260138F00BCF
:1004E600016E00380F0B01260038F00B006E0E84EB
:1004F600D89002BE40EF02F00036013602360E2AD0
:1005060002BE40EF02F00036013602360E2A02BE67
:1005160040EF02F00036013602360E2A40EF02F0B6
:1005260001C002F000C001F0006A000E0E960E88AF
:100536000264C0EF02F0F00E0214D8A4ABEF02F092
:10054600023A01380F0B02260138F00B016E0E84B9
:10055600D89002BE40EF02F0013602360E2A02BEE5
:1005660040EF02F0013602360E2A02BE40EF02F0DC
:10057600013602360E2A40EF02F001C002F0016A8F
:10058600000E0E860264F0EF02F0F00E0214D8A4FC
:10059600CFEF02F0023A0E84D89002BE40EF02F08E
:1005A60002360E2A02BE40EF02F002360E2A02BEC4
:1005B60040EF02F002360E2A40EF02F0010E0C6EFA
:1005C60062DEF3EF02F0020E0C6E16DEF3EF02F0BF
:1005D600040E0C6EFEDDF3EF02F0080E0C6E05DE67
:0205E600120001
:1005E800DCDE00C04DF001C04EF03F0E4F6E000E35
:1005F800506E05DE40C03FF02E0E406E6D0E436E0D
:100608006D0E446E456A020E4D6E010E4E6E3F0E23
:0A0618004F6E000E506E43DE12001C
:100622000B800BAE1DEF03F0026A0AAEFF0E026EE4
:0C063200016E006E0A360232FF0E12004C
:10063E002CC001F02DC002F02EC003F02FC004F02C
:10064E001E50015E1F50025A2050035A2150045A68
:10065E0001C03FF002C040F003C041F004C042F0C0
:10066E00800E0418006E800E005C08E1000E035C24
:10067E0005E1000E025C02E1000E015C14E2006A6C
:10068E00016A026A036A3F50005E4050015A4150AF
:10069E00025A4250035A00C03FF001C040F002C05F
:1006AE0041F003C042F03FC000F040C001F041C035
:1006BE0002F042C003F0030E046E000E056E066ECD
:1006CE00076E71DE00C03FF001C040F002C041F085
:1006DE0003C042F03FC04DF040C04EF0430E4F6E8F
:1006EE00000E506E14DE200E486E520E496E500EE5
:1006FE004A6E4D0E4B6E020E4D6E080E4E6E430E32
:10070E004F6E000E506EC8DD1EC02CF01FC02DF0B7
:0A071E0020C02EF021C02FF01200C1
:080728000B6A0B86FF0E1200A4
:10073000F29E1EC03FF01FC040F020C041F021C01B
:1007400042F0F28E3FC04DF040C04EF0430E4F6E6F
:10075000000E506E58DD010E4D6E010E4E6E430EB2
:100760004F6E000E506E9FDD8AA608D02D0E436E90
:100770002D0E446E3E0E456E466A07D03C0E436E0B
:100780002D0E446E2D0E456E466A010E4D6E0E0EF8
:0E0790004E6E430E4F6E000E506E85DD120051
:10079E000050086E0150006E0250016E0350026E42
:1007AE00036A0B6A0C6A9E0E036E0A6A020E0C6EC8
:0407BE0023DE120024
:1007C2000450000A12E10550000A0FE10650000A27
:1007D2000CE10750000A09E1FF0E006EFF0E016EE8
:1007E2007F0E026EFF0E036EA4D0086A096A0750DC
:1007F200D8B48CEF04F00350D8B490EF04F0025058
:1008020006180A6E028E068E0E6A02C008F001C039
:100812000CF000C00DF004500D5E0550D8A0053C50
:100822000C5E0650D8A0063C085E086A0C6A0D6A87
:10083200D8A023EF04F0D8900232013200320832FD
:10084200010E0E6E0750035ED8A030EF04F07E0E4C
:100852000E240326D8B094EF04F036EF04F07E0E97
:100862000E240326D8A098EF04F0180E0B6E0D3656
:100872000C3608360036013602360E360450005E5B
:100882000550D8A0053C015E0650D8A0063C025E89
:1008920006340E120EA051EF04F00D805CEF04F04E
:1008A200045000260550D8B0053C01260650D8B0A9
:1008B200062802260D900B2E38EF04F082EF04F08A
:1008C200D8900036013602360E360450005E0550CE
:1008D200D8A0053C015E0650D8A0063C025E063454
:1008E2000E10010B0D26D8B00C2AD8B4082AD8A4B1
:1008F20082EF04F008320C320D32032AD8B494EF9E
:1009020004F00AAE089E0850026E0C50016E0D50A3
:10091200006E9AEF04F0010E06DF9AEF04F0020E69
:1009220066DC9AEF04F0040E56DC9AEF04F0080E2F
:04093200ACDC120027
:0E093600570E0D6E0D2EFED7000000001200B1
:1009440003EC00F0F3DE4EDE78DE640E2224286E23
:10095400000E2320296E000E24202A6E000E25206E
:100964002B6EE80E2224196E030E23201A6E000E3D
:0C09740024201B6E000E25201C6E1200BB
:100980000B6A0C6A0A6A0350D8B40AEF05F0028EAB
:100990008E0E035E03BED2EF04F0D8B4D2EF04F0A3
:1009A0000EEF05F0036C080E035CD8A0E9EF04F02D
:1009B000036E013602C001F0026A080E035CD8A083
:1009C000E9EF04F00136016A0350D8A4D890F3EFA0
:1009D00004F00350D8B4F3EF04F0D890023201329F
:1009E000032EEDEF04F00BBC01A000EF05F0D8A042
:1009F00000EF05F0012AD8B4022A02BE1DEF05F06F
:100A00000AAE22EF05F0021E011E012AD8B4022A06
:100A100022EF05F0026A016A22EF05F00B800BAEAF
:100A200026EF05F0026A0AAE26EF05F0FF0E026E11
:100A3000016E0A36023226EF05F0010E0C6EF1DD72
:100A400028EF05F0000E0C6E28EF05F0FF0E0C6E7F
:0A0A50000150006E0250016E12000A
:100A5A009398939A92969294929292908A988A9A5A
:100A6A00899089928994899674EC00F074EC00F06C
:100A7A0074EC00F0898489868A8886EC00F08A986A
:100A8A0074EC00F08A8886EC00F08A9874EC00F026
:100A9A008A8886EC00F08A9874EC00F089968A8835
:100AAA0086EC00F08A9874EC00F08A8886EC00F0F4
:100ABA008A98899489808A8886EC00F08A9874ECEE
:100ACA0000F0899089868A8886EC00F08A9889964F
:100ADA008A8886EC00F08A9874EC00F08A8886ECA2
:100AEA0000F08A9889868A8886EC00F08A9874ECE5
:100AFA0000F089968A8886EC00F08A988980898233
:100B0A00898489868A8886EC00F08A9874EC00F0D9
:040B1A003A8012000B
:100B1E00880E326E0B0E336E560E346E000E356E20
:100B2E00C30EC216030EC112C19C180EC112C18E85
:040B3E00C28012005F
:100B4200F26AF16AF06AD09E9D6AA06AA36A9E6AFE
:100B5200A16AA46AD26AD16A0F01256BFF0E486F9F
:100B62001E0E496FFF0E926EFF0E936EFF0E946E75
:100B7200FF0E956EFF0E966E959C8A96F28EF28C03
:060B8200F18E968C1200BA
:100B8800C30EC21656C000F0003600900036009022
:100B98000050C212CCDEC282C2A202D00000FCD732
:100BA800C4CF01F0006AC3500010576E01C058F05E
:0E0BB800000E581257C000F058C001F0120095
:100BC600796AD00E7B6E2A0E7A6EA182A082226A84
:0A0BD600236A246A256A7980120060
:100BE0003CDF010E546E8DEC00F00C0E546E8DEC5B
:060BF00000F0A8DE120077
:100BF6003E50050802E13D50DC0804E2DC0E3D6E85
:100C0600050E3E6E3DC036F03EC037F0D00E006E8B
:100C1600070E016E000E026E000E036E3DC004F05C
:100C26003EC005F0000E066E076EDAEC01F0B4DD8C
:100C3600000E046E000E056E160E066E860E076E0C
:0E0C4600BDDD9BDE00C030F001C031F01200B9
:100C540025502B5C08E124502A5C05E12350295CD3
:100C640002E12250285C0DE2190E2224286E000EA7
:100C74002320296E000E24202A6E000E25202B6EC0
:040C840055DD120028
:100C88009B8C9C0E0C6ED70E0D6E0D2EFED70C2E67
:100C9800FCD753DF40DF1D6A000E83BE010E3C6E99
:100CA8003B6A1E6A1F6A206A216A386A396AE80E36
:100CB8003D6E030E3E6E9BDF82DF8EDFC7DFFED701
:020CC800FFD754
:020000040001F9
:08FFF800AAF7FDFFFFFAFFFB71
:00000001FF
