:040000001EEF0BF0F4
:020006001200E6
:1000080000C017F001C016F002C015F0A1A211D06F
:10001800E80E7B6E900E7A6EA192010E3226000ECB
:100028003322342235228BEC08F0CCEC08F0E3ECD8
:1000380008F017C000F016C001F015C002F011005A
:0E004800C70E0D6E0D2EFED700000000120038
:10005600560E0C6EB50E0D6E0D2EFED70C2EFCD761
:0600660000000000120082
:0E006C00030E0D6E0D2EFED7000000001200D8
:10007A00000168BF02D0899001D0898068BD02D092
:10008A00899201D0898268BB02D0899401D089847F
:10009A0068B902D0899601D089862BB002D08A8AA3
:1000AA0001D08A9A8A88DDDF8A9868B702D0899057
:1000BA0001D0898068B502D0899201D0898268B35B
:1000CA0002D0899401D0898468B102D0899601D07E
:1000DA0089862BB002D08A8A01D08A9A8A88C1DF9F
:0E00EA008A982BA002D0B2DF01D0A9DF12004D
:1000F8000B840BAE87EF00F0010E036E026A016AF3
:0A010800006A0A360232FF0E1200F0
:080112000AAE029E000E12006D
:10011A00086A096A100E0C6E013408360936045052
:10012A00085E0550D8A0053C095ED8B007D0045037
:10013A0008260550D8B0053C0926D8900036013665
:06014A000C2EEAD71200A2
:0C0150002B9067C068F091DF2B8012003C
:0E015C00026A016A006A086A036A000E120055
:10016A000B820BAEBFEF00F00368026801680068FB
:08017A000A360232FF0E1200EA
:100182000B800BAECDEF00F0026A0AAEFF0E026EDC
:0C019200016E006E0A360232FF0E1200F1
:10019E0000016151010A03E1800E616F14D06151BB
:1001AE00020A03E1C00E616F0ED06151030A03E132
:1001BE00940E616F08D06151040A03E1D40E616F91
:1001CE0002D0800E616F6205006E6151002600C084
:1001DE0061F000C068F04ADF2B90656B65516325B6
:1001EE00E96E000E6421EA6EEE50000A0BE06551D6
:1001FE006325E96E000E6421EA6EEECF67F0A1DF93
:08020E00652BECD72B801200D8
:10021600220E0C6E086A096A0A6A0B6A0C06D8B4C2
:100226001FD0D8900B320A3209320832033202321A
:1002360001320032D8A0F2D70C06D8B409D0045047
:1002460008260550092206500A2207500B22EAD733
:10025600045008260550092206500A2207500B2290
:02026600120084
:100268001DC002F01EC003F002C000F003C001F080
:02027800120072
:08027A000B6A0B86FF0E120057
:0E028200550EA76EAA0EA76E0E01BF811200C8
:0E029000550EA76EAA0EA76E0E01BF911200AA
:10029E0063C0E1FF64C0E2FF300EE66E300EE66E24
:1002AE00300EE66E300EE66E300EE66EE66A040E28
:1002BE0000016325656F000E6421666F000E6219E2
:1002CE0002E1000E611927E00A0E046E000E056EA3
:1002DE0061C000F062C001F019DF08C000F009C073
:1002EE0001F0300E002665C0E1FF66C0E2FF00C0DF
:1002FE00E6FF0A0E046E000E056E61C000F062C0CD
:10030E0001F004DF00C061F001C062F0010E655F14
:08031E00000E665BD3D712004C
:100326000B6A0A6A096A00500402F4CF09F0F3CF97
:1003360008F001500502F4CF0BF0F3CF0AF000509D
:100346000502F3500926F4500A22E86A0B220150EE
:100356000402F3500926F4500A22E86A0B2208C068
:1003660000F009C001F00AC002F00BC003F0120051
:100376000CB0FDEF01F00CA2A3EF02F00E6A000E26
:10038600026414EF02F0F00E0214D8A4DFEF01F0BD
:10039600023A01380F0B02260138F00B016E0038C5
:1003A6000F0B01260038F00B006E08380F0B0026E5
:1003B6000838F00B086E0E84D89002BEF8EF01F0F4
:1003C60008360036013602360E2A02BEF8EF01F074
:1003D60008360036013602360E2A02BEF8EF01F064
:1003E60008360036013602360E2A0E50036499EF9F
:1003F60002F0035E0BBC08AE9EEF02F0D880800EC2
:1004060008640030000E002201220222D8A09EEFCE
:1004160002F0023201320032034AA3EF02F09EEFED
:1004260002F001C002F000C001F008C000F0086A46
:10043600000E0E8602644BEF02F0F00E0214D8A4F2
:1004460033EF02F0023A01380F0B02260138F00BA7
:10045600016E00380F0B01260038F00B006E0E847B
:10046600D89002BEF8EF01F00036013602360E2AA9
:1004760002BEF8EF01F00036013602360E2A02BE41
:10048600F8EF01F00036013602360E2AF8EF01F0D9
:1004960001C002F000C001F0006A000E0E960E8840
:1004A600026478EF02F0F00E0214D8A463EF02F0B3
:1004B600023A01380F0B02260138F00B016E0E844A
:1004C600D89002BEF8EF01F0013602360E2A02BEBF
:1004D600F8EF01F0013602360E2A02BEF8EF01F0FF
:1004E600013602360E2AF8EF01F001C002F0016A69
:1004F600000E0E860264A8EF02F0F00E0214D8A4D5
:1005060087EF02F0023A0E84D89002BEF8EF01F0AF
:1005160002360E2A02BEF8EF01F002360E2A02BE9D
:10052600F8EF01F002360E2AF8EF01F0010E0C6E1C
:10053600E0DDABEF02F0020E0C6EE8DDABEF02F091
:10054600040E0C6E0FDEABEF02F0080E0C6E03DE2F
:02055600120091
:1005580063C0E1FF64C0E2FF200EE66E200EE66E87
:10056800200EE66E200EE66E300EE66EE66A040E8B
:1005780000016325656F000E6421666F000E621925
:1005880002E1000E611927E00A0E046E000E056EE6
:1005980061C000F062C001F0BCDD08C000F009C015
:1005A80001F0300E002665C0E1FF66C0E2FF00C022
:1005B800E6FF0A0E046E000E056E61C000F062C010
:1005C80001F0A7DD00C061F001C062F0010E655FB7
:0805D800000E665BD3D7120090
:1005E0003AC001F03BC002F03CC003F03DC004F053
:1005F0002550015E2650025A2750035A2850045AAB
:1006000001C053F002C054F003C055F004C056F0CE
:10061000800E0418006E800E005C08E1000E035C82
:1006200005E1000E025C02E1000E015C14E2006ACA
:10063000016A026A036A5350005E5450015A5550D1
:10064000025A5650035A00C053F001C054F002C081
:1006500055F003C056F053C000F054C001F055C02F
:1006600002F056C003F0030E046E000E056E066E17
:10067000076ED1DD00C053F001C054F002C055F048
:1006800003C056F053C061F054C062F0570E000131
:10069000636F000E646F60DF200E5C6E520E5D6E45
:1006A000500E5E6E4D0E5F6E020E616F080E626F31
:1006B000570E636F000E646F72DD25C03AF026C0DE
:0C06C0003BF027C03CF028C03DF01200C9
:1006CC000050086E0150006E0250016E0350026E15
:1006DC00036A0B6A0C6A9E0E036E0A6A020E0C6E9B
:0406EC0044DE1200D6
:1006F000BBDD00C061F001C062F0530E0001636F0A
:10070000000E646FCCDD54C053F02E0E546E6D0E8F
:10071000576E6D0E586E596A020E616F010E626F50
:0C072000530E636F000E646F3ADD120090
:10072C000B6A0C6A0A6A0350D8B4E0EF03F0028E2D
:10073C008E0E035E03BEA8EF03F0D8B4A8EF03F04F
:10074C00E4EF03F0036C080E035CD8A0BFEF03F0DA
:10075C00036E013602C001F0026A080E035CD8A0D9
:10076C00BFEF03F00136016A0350D8A4D890C9EF4B
:10077C0003F00350D8B4C9EF03F0D8900232013221
:10078C00032EC3EF03F00BBC01A0D6EF03F0D8A0EF
:10079C00D6EF03F0012AD8B4022A02BEF3EF03F01D
:1007AC000AAEF8EF03F0021E011E012AD8B4022A89
:1007BC00F8EF03F0026A016AF8EF03F00B800BAE5E
:1007CC00FCEF03F0026A0AAEFCEF03F0FF0E026EC0
:1007DC00016E0A360232FCEF03F0010E0C6ECBDC1C
:1007EC00FEEF03F0000E0C6EFEEF03F0FF0E0C6E2E
:0A07FC000150006E0250016E120061
:10080600010E006E000E016ECB500026D8B0012AF4
:1008160053C004F0000E056E83DD060E026E00C0A6
:1008260004F001C005F0025005E005320432059ED1
:10083600FF0FFAD7040E016E04C000F0015004E069
:1008460000360090FF0FFBD7300E0014036E04C075
:1008560000F005C001F001320032019E0132003283
:10086600019E00C0BBFF0F0EBA160350BA1212004B
:10087600F29E25C053F026C054F027C055F028C07C
:1008860056F05632553254325332569E56BC568E18
:10089600F28E53C061F054C062F0570E0001636FD0
:1008A600000E646FF9DC5D6A5BC05CF02E0E5B6E59
:1008B600010E616F010E626F570E636F000E646F5B
:1008C6006BDC8AA608D02D0E576E2D0E586E3E0E86
:1008D600596E5A6A07D03C0E576E2D0E586E2D0E65
:1008E600596E5A6A010E616F0E0E626F570E636F74
:0808F600000E646F51DC1200DA
:1008FE0053501808FF0ED8B0000E026E53500D085C
:10090E00FF0ED8B0000E016E110E535CFF0ED8B064
:10091E00000E006E0150001602500012D8A4576A45
:10092E005450000AD8A48CD05650010A01E1A9DC1B
:10093E005350000A03E155C0C0FE7ED05350010A49
:10094E0003E155C0C1FE78D05350020A03E155C0F1
:10095E00C2FE72D05350030A03E155C0C3FE6CD0E1
:10096E005350040A03E155C0C4FE66D05350050A25
:10097E0003E155C0C5FE60D05350060A03E155C0D1
:10098E00C6FE5AD05350070A03E155C0C7FE54D0D5
:10099E005350080A03E155C0C8FE4ED05350090A01
:1009AE0003E155C0C9FE48D053500A0A03E155C0B1
:1009BE00CAFE42D053500B0A03E155C0CBFE3CD0C9
:1009CE0053500C0A03E155C0CCFE36D053500D0ADD
:1009DE0003E155C0CDFE30D05350110A03E155C08E
:1009EE00D1FE2AD05350120A03E155C0D2FE24D0B4
:1009FE005350130A03E155C0D3FE1ED05350140AB0
:100A0E0003E155C0D4FE18D05350150A03E155C06A
:100A1E00D5FE12D05350160A03E155C0D6FE0CD0A7
:100A2E005350170A03E155C0D7FE06D05350180A8B
:100A3E0003E155C0D8FE00D05650010A01E11ADC80
:100A4E005450010AD8A475D05650010A01E119DCA0
:100A5E005550000A03E153C0E1FE66D05550010A1D
:100A6E0003E153C0E2FE60D05550020A03E153C0C9
:100A7E00E3FE5AD05550030A03E153C0E4FE54D0AE
:100A8E005550040A03E153C0E6FE4ED05550050AF8
:100A9E0003E153C0E7FE48D05550060A03E153C0A8
:100AAE00E8FE42D05550070A03E153C0E9FE3CD0A0
:100ABE005550080A03E153C0EAFE36D05550090AD4
:100ACE0003E153C0F2FE30D055500A0A03E153C081
:100ADE00F3FE2AD055500B0A03E153C0F4FE24D086
:100AEE0055500C0A03E153C0F7FE1ED055500D0AA7
:100AFE0003E153C0F8FE18D055500E0A03E153C05F
:100B0E00FCFE12D055500F0A03E153C0FDFE0CD06F
:100B1E005550100A03E153C0FEFE06D05550110A7F
:100B2E0003E153C0FFFE00D05650010A02E141EC32
:100B3E0001F05350000A06E154B002D0929001D059
:100B4E009280BDD05350010A06E154B002D0929269
:100B5E0001D09282B4D05350020A06E154B002D0B2
:100B6E00929A01D0928AABD05350030A06E154B048
:100B7E0002D0939001D09380A2D05350040A06E184
:100B8E0054B002D0939201D0938299D05350050A5B
:100B9E0006E154B002D0939401D0938490D0535078
:100BAE00060A06E154B002D0939601D0938687D000
:100BBE005350070A06E154B002D0939801D093889F
:100BCE007ED05350080A06E154B002D0939A01D059
:100BDE00938A75D05350090A06E154B002D0939C03
:100BEE0001D0938C6CD053500A0A06E154B002D057
:100BFE00939E01D0938E63D053500B0A06E154B0EE
:100C0E0002D0949001D094805AD053500C0A06E131
:100C1E0054B002D0949201D0948251D053500D0A08
:100C2E0006E154B002D0949401D0948448D053502D
:100C3E00110A06E154B002D0949C01D0948C3FD09E
:100C4E005350120A06E154B002D0949E01D0948EF5
:100C5E0036D05350130A06E154B002D0959401D009
:100C6E0095842DD05350140A06E154B002D09596B7
:100C7E0001D0958624D05350150A06E154B002D007
:100C8E00959801D095881BD05350160A06E154B0A2
:100C9E0002D0959A01D0958A12D05350170A06E1C8
:100CAE0054B002D0959C01D0958C09D05350180A9F
:100CBE0006E154B002D0959E01D0958E00D057C05B
:040CCE0000F0120020
:100CD2000450000A12E10550000A0FE10650000A12
:100CE2000CE10750000A09E1FF0E006EFF0E016ED3
:100CF2007F0E026EFF0E036EA8D0086A096A0750C3
:100D0200D8B414EF07F00350D8B419EF07F002502B
:100D120006180A6E028E068E0E6A02C008F001C024
:100D22000CF000C00DF004500D5E0550D8A0053C3B
:100D32000C5E0650D8A0063C085E086A0C6A0D6A72
:100D4200D8A0ABEF06F0D89002320132003208325E
:100D5200010E0E6E0750035ED8A0B8EF06F07E0EAD
:100D62000E240326D8B01EEF07F0BEEF06F07E0E6B
:100D72000E240326D8A023EF07F0180E0B6E0D36B3
:100D82000C3608360036013602360E360450005E46
:100D92000550D8A0053C015E0650D8A0063C025E74
:100DA20006340E120EA0D9EF06F00D80E4EF06F025
:100DB200045000260550D8B0053C01260650D8B094
:100DC200062802260D900B2EC0EF06F00AEF07F060
:100DD200D8900036013602360E360450005E0550B9
:100DE200D8A0053C015E0650D8A0063C025E06343F
:100DF2000E10010B0D26D8B00C2AD8B4082AD8A49C
:100E02000AEF07F008320C320D32032AD8B41EEF73
:100E120007F00AAE089E0850026E0C50016E0D508B
:100E2200006E26EF07F0010E3DEC01F026EF07F011
:100E3200020EAEEC00F026EF07F0040EB5EC00F067
:0C0E420026EF07F0080E7CEC00F0120018
:0E0E4E00570E0D6E0D2EFED700000000120094
:080E5C00BB6ABA98BA9A1200B1
:0C0E64004DC01CF04DC053F0CCDC12005F
:100E70004DC053F04EC054F04FC055F0566A3FDDA0
:0A0E800000C050F050C000F0120056
:100E8A0000016A5132242E6E6B5133202F6E000EF0
:0E0E9A003420306E000E3520316E8B82120037
:080EA800CA840C0EBA121200FC
:100EB0004E50050802E14D50DC0804E2DC0E4D6E98
:100EC000050E4E6E4DC01DF04EC01EF0FA0E006EA7
:100ED000000E016E000E026E000E036E4DC004F097
:100EE0004EC005F0000E066E076E0BEC01F066ECCE
:100EF00003F0000E046E000E056E160E066E830ED5
:100F0000076EE7DE13DC00C01FF001C020F0120006
:100F10004D5032242E6E4E5033202F6E000E342052
:0C0F2000306E000E3520316E8B82120006
:100F2C004E50525C02E14D50515C02E2016A0AD013
:100F3C0050504E5C02E14F504D5C02E2016A02D00F
:0A0F4C00FF0E016E01C000F012005C
:100F5600C30EC216030EC112C19C180EC112C18E59
:100F66004DC000F000360090003600900050C212CE
:100F7600C2806ADFC282C2A202D00000FCD7C29041
:100F8600C4CF01F0006AC35000104E6E01C04FF08E
:0E0F9600000E4F124EC000F04FC001F01200CE
:100FA4009398939A92969294929292908A988A9A0B
:100FB40089908992899489962BEC00F02BEC00F0AF
:100FC4002BEC00F0898489868A8836EC00F08A98B4
:100FD4002BEC00F08A8836EC00F08A982BEC00F0B9
:100FE4008A8836EC00F08A982BEC00F089968A887F
:100FF40036EC00F08A982BEC00F08A8836EC00F08E
:101004008A98899489808A8836EC00F08A982BEC37
:1010140000F0899089868A8836EC00F08A9889964F
:101024008A8836EC00F08A982BEC00F08A8836EC3B
:1010340000F08A9889868A8836EC00F08A982BEC2E
:1010440000F089968A8836EC00F08A988980898233
:10105400898489868A8836EC00F08A982BEC00F023
:041064002B801200CB
:1010680003EC00F004DC78EC03F0F0EC02F0C80EBE
:101078003224426E000E3320436E000E3420446E3C
:10108800000E3520456ED00E32243E6E070E3320FA
:101098003F6E000E3420406E000E3520416E120067
:1010A800F26AF16AF06AD09E9D6AA06AA36A9E6A93
:1010B800A16AA46AD26AD16A0F01256BDF0E486F54
:1010C8001E0E496FFF0E926EFF0E936EFF0E946E0A
:1010D800FF0E956EFF0E966E959C93969492939044
:0A10E800F28EF28CF18E968C12004D
:1010F200FF0E216EFF0E226EFF0E236EFF0E246E78
:10110200C30EC216030EC112C19C180EC112C18EAB
:04111200C280120085
:10111600016A83BE012A0150391836E0026A83BE8D
:10112600022A016A81B2012A02500118000ED8A4CF
:10113600FF0E006E00C069F0005207E0010E252682
:10114600000E26222722282206D0010E255E000E3A
:10115600265A275A285A365000016919D8A48A7681
:1011660069C036F0000E006E2A50005C02E129507C
:10117600FA0806E20001F40E6A6F010E6B6F82DE5A
:101186001F50292620502A22000E83BE010E396EDA
:02119600120045
:101198008CAC04D08C9C010E376E10D03750000AEE
:1011A8000CE1000E2A5C02E1FA0E295C05E38C8C46
:0E11B800FA0E295E000E2A5A01D037061200E8
:1011C6008BA20DD03150355C08E13050345C05E11E
:1011D6002F50335C02E12E50325CD8B08B92120055
:1011E600DEDE010E0001686F3DEC00F00C0E686F4C
:0811F6003DEC00F036DF1200B1
:1011FE003550455C08E13450445C05E13350435CA6
:10120E0002E13250425C0EE2320E3224426E000E89
:10121E003320436E000E3420446E000E3520456E92
:10122E003BEC04F03550415C08E13450405C05E184
:10123E0033503F5C02E132503E5C0EE2D00E32245F
:10124E003E6E070E33203F6E000E3420406E000EB1
:0A125E003520416EF0EC02F01200A2
:1012680035501B5C08E134501A5C05E13350195CB9
:1012780002E13250185C54E2140E3224186E000E4B
:101288003320196E000E34201A6E000E35201B6EA6
:10129800F29E050E4D6E5BDE00C046F001C047F0C1
:1012A800050E4D6E54DE00C046F001C047F0050E35
:1012B8004D6E4DDE00C046F001C047F0050E4D6E84
:1012C80046DE00C046F001C047F0050E4D6E3FDE19
:1012D80000C046F001C047F0050E4D6E38DE00C074
:1012E80046F001C047F0050E4D6E31DE00C046F0F5
:1012F80001C047F0466A476A486A050E4D6E27DE08
:10130800005046260150472248500F0A02E0482A5A
:10131800F4D7F28E47C046F0476A46C04DF09EDDCE
:021328001200B1
:10132A00080E4D6E13DE00C046F001C047F04A6A4F
:10133A0000C04DF001C04EF04F6A506A2A0E516E3D
:10134A00010E526EEEDD0052D8A44A8846C04DF016
:10135A0047C04EF0430E4F6E010E506E1A0E516E7C
:10136A00030E526EDEDD0052D8A44A8446C04DF008
:10137A0047C04EF0E10E4F6E030E506E340E516EA2
:10138A00060E526ECEDD0052D8A44A8646C04DF0F3
:10139A0047C04EF0660E4F6E060E506E040E516E2A
:1013AA00090E526EBEDD0052D8A44A8246C04DF0E4
:1013BA0047C04EF0AA0E4F6E0A0E506E370E516E8F
:1013CA000C0E526EAEDD0052D8A44A8082BC02D006
:1013DA004A9A01D04A8A82BE02D04A9C01D04A8CDB
:1013EA0083B602D04A9E01D04A8E38504A18486EB7
:1013FA00496A000E491A000E496E000E006E4950E5
:10140A00005C02E14850000855E22D6A2DC002F046
:10141A00010E006E000E016E025005E000360090CB
:10142A000136FF0FFAD700504814026E49500114D2
:10143A00036E016A000E031802E1000E021802E0B0
:10144A00010E016E0150010AFF0ED8A4000E036EB0
:10145A002DC001F0010E006E015004E0003600902C
:10146A00FF0FFBD700504A14026E016A0250000AAD
:10147A0002E0010E016E0150000AFF0ED8A4000E10
:10148A00006E0350001611E02DC001F0010E006E2F
:10149A00015004E000360090FF0FFBD700502C12D9
:1014AA00050E4D6E000E4E6E2EDD2D50070A02E01F
:1014BA002D2AACD74AC038F02C500008D8B08FD0AB
:1014CA002D6A2DC001F0010E006E015004E00036B5
:1014DA000090FF0FFBD700502C14026E016A0250D5
:1014EA00000A02E0010E016E0150010AD8A472D06E
:1014FA002D50000A06E1256A266A276A286AAFDDA6
:10150A005CD02D50010A06E18A96900E2926D00E4B
:10151A002A2253D02D50040A06E18A86900E2926E3
:10152A00D00E2A224AD02D50020A15E134EC01F0DD
:10153A0000C04BF001C04CF00A0E0026000E01223A
:10154A0000C04BF001C04CF000C04DF001C04EF09D
:10155A00AADC85DD32D02D50030A1FE134EC01F0FC
:10156A0000C04BF001C04CF0000E026E0150025C4C
:10157A0002E100500A080FE20A0E4B5C006E000EF0
:10158A004C58016E00C04BF001C04CF000C04DF049
:10159A0001C04EF088DC63DD10D02D50050A03E14E
:1015AA004D6A5BDC0AD02D50060A02E18A7605D024
:1015BA002D50070A02E18A7600D02DC001F0010EF3
:1015CA00006E015004E000360090FF0FFBD7001EAA
:1015DA0000502C162D50070A02E02D2A72D712004D
:1015EA00796AE80E7B6E900E7A6EA182A082326AC8
:0A15FA00336A346A356A7980120002
:10160400186A196A1A6A1B6A48EC01F0030E4D6ED7
:101614004E6A0E0E4F6E2ADC41EC01F0CA90CA925B
:10162400CA80CA824A0ECB6E17DC3CDC536A03ECD8
:0816340004F04D6A15DC120000
:10163C009B8C9C0E0C6ED70E0D6E0D2EFED70C2EA9
:10164C00FCD72CDD8B924FDD386A000E83BE010E69
:10165C00396E2C6A256A266A276A286A296A2A6AD8
:10166C00200E4D6E030E4E6E1DDCB9DFC5DFB5DDF1
:10167C00640E4D6E000E4E6E45DC0D0E0B6E2D0E77
:10168C000C6ED70E0D6E0D2EFED70C2EFCD70B2E1E
:10169C00FAD700000000640E4D6E000E4E6E32DC68
:0A16AC003EDEA7DDDBDDFCD7FFD733
:020000040001F9
:08FFF800AAF7DDFFFFFAFFFB91
:00000001FF
